:200000000C94FA000C941C010C941C010C941C010C941C010C941C010C941C010C941C011B
:200020000C941C010C941C010C94D7060C941C010C941C010C941C010C9424060C941C010B
:200040000C941C010C941C010C941C010C941C010C941C010C941C010C941C010C941C01B8
:200060000C941C010C941C010C941C010C941C010C941C010C941C010C941C010C941C0198
:200080000C941C010C941C010C941C010C941C010C941C010C941C010C941C010C941C0178
:2000A0000C941C010C941C010C941C010C941C010C941C010C941C010C941C010C941C0158
:2000C0000C941C010C941C010C941C010C941C010C941C010C941C010C941C010C941C0138
:2000E0000C941C010C941C010C941C010C941C010C941C010C941C010C941C010C941C0118
:200100000C941C010C941C010C941C010C941C010C941C010C941C010C941C010C941C01F7
:200120000C941C010C941C010C941C010C941C010C941C010C94CB010C941C010C941C0128
:200140000C941C010C941C010C941C010C941C010C941C010C941C010C941C010C941C01B7
:200160000C941C010C941C010C941C010C941C010C941C010C941C010C941C010C941C0197
:200180000C941C010C941C010C941C010C941C010C941C010C941C010C941C010C941C0177
:2001A0000C941C010C941C010C941C010C941C010C941C010C941C010C941C010C941C0157
:2001C0000C941C010C941C010C941C010C941C010C941C010C941C010C941C010C941C0137
:2001E0000C941C010C941C010C941C010C941C010C941C0111241FBECFEFDFE3DEBFCDBF93
:2002000000E00CBF10E2A0E0B0E2ECE1FEE000E00BBF02C007900D92AE31B107D9F71BBEA2
:2002200010E2AEE1B0E201C01D92A93EB107E1F70E9475020C940C070C9400008FE0E0EE1B
:20024000F6E084838FEF8093E0068093200780EF80930007E0E4F4E081E08093400488EEC1
:2002600093E08483958380E099E1868397838AE0818389E4808789E88187158E168E178EA8
:200280008FE3848F80915D0487FFFCCF0895DF93CF93CDB7DEB76097082E88ED84BFDEBF0A
:2002A000CDBF802D90EB909300808BE080930180109202808EEB809303808FEE80930480A1
:2002C000109205808EED809306808DEA809307808AEB8093648080ED809365808093668008
:2002E00080E680936780809368808DE08093698080936A8086E080936B809983809101802B
:200300008A83809102808B83809103808C83809104808D83809105808E83809106808F8397
:20032000809107808887809164808987809165808A87809166808B87809167808C878091E5
:2003400068808D87809169808E8780916A808F8780916B80888B41E020E030E0BE016F5FB4
:200360007F4FFB01E20FF31FD901A050B04E90818C91981340E02F5F3F4F2031310589F7CC
:20038000842F6096082E88ED84BFDEBFCDBF802DCF91DF9108951F920F920FB60F9208B60D
:2003A0000F920BB60F9211242F933F938F93EF93FF9380911E2021E130E0082E02C0220FB1
:2003C000331F0A94E2F7E0E8F6E027838F5F80931E20843010F010921E20FF91EF918F9109
:2003E0003F912F910F900BBE0F9008BE0F900FBE0F901F9018950F931F93CF93DF9310E021
:2004000001E0C0E8D6E00830A1F1093040F40230F1F0043029F1013009F05CC00EC00032BF
:20042000D1F1013220F4003109F054C02BC00034D9F1003809F04EC042C010FD4BC00E9491
:200440006B03813009F046C00D83116040C011FD41C00E9447018130E9F50D83126037C0FC
:2004600012FD38C00E944B058130A1F50D8314602EC013FD2FC00E943303813059F50D83E4
:20048000186025C014FD26C00E94FC02813011F50D8310611CC015FD1DC00E94C2068130CA
:2004A000C9F40D83106213C016FD14C080E090E00E94DB04813071F40D83106408C017FD7C
:2004C00009C00E940A07813029F40D831068812F0E946804000F09F401E01F3F09F093CF66
:2004E000DF91CF911F910F9108950E948C060E945F030E94F5060E942F050E94D9020E9475
:20050000BE040E941E010E94F90381E0E0EAF0E0828378940E94B604813039F080E190E2A5
:200520006DE00E948A040E94FB018FEFE0E8F6E08583E0E0F9E088E893E186A397A381E03B
:20054000868387E0809300098091A8068F3FE1F39091A8068091A8068F3FE1F7892F8095AD
:200560008830D9F0893038F4823099F0843099F0813051F70CC08032A1F0813218F4803125
:2005800019F70DC0803479F08038F1F60EC081E00DC082E00BC083E009C084E007C085E0DD
:2005A00005C086E003C087E001C088E00E946505CBCF83E0E0E2F6E08283E0E4F2E084837A
:2005C000118280E1828391E090A311A290A788E081A790934002809140028C60809340020B
:2005E0008091460283708330D9F7809146028360E0E4F2E08683089584E0E0ECF7E08683A4
:2006000020E030E040E0E0E4F2E0809140028460809340028091460280FFFCCF809146028C
:20062000816086838091500290915102280F391F4F5F403151F7C90124E0969587952A952F
:20064000E1F72FE0813F920710F020E006C020E08F3F910511F008F021E084E0E0ECF7E02F
:200660008583822F089520E030E040E0E0E4F2E0809140028860809340028091460281FFF5
:20068000FCCF80914602826086838091520290915302280F391F4F5F403151F744E036958B
:2006A00027954A95E1F78FE0213F380710F080E0089580E02031310508F081E00895E0E41B
:2006C000F6E082E0858382EA818380E4828380ED8093C008089582E0E0E4F6E086838FE99F
:2006E000E0ECF8E083838091C20887FFFCCF8091C3088FEFE0ECF8E083838091C20887FFBF
:20070000FCCF2091C3088FEFE0ECF8E083838091C20887FFFCCF8091C308883211F090E037
:2007200004C090E02F3109F491E08FEFE0ECF8E083838091C20887FFFCCF8091C3088111F5
:2007400090E08FEFE0ECF8E083838091C20887FFFCCF8091C308811190E082E0E0E4F6E0FB
:200760008583892F089582E0E0E4F6E0868387E7E0ECF8E083838091C20887FFFCCF8091C2
:20078000C3088FEFE0ECF8E083838091C20887FFFCCF8091C3088FEFE0ECF8E08383809125
:2007A000C20887FFFCCF8091C3088FEFE0ECF8E083838091C20887FFFCCF8091C30890E0A2
:2007C000A0ECB8E02FEF13962C9313978091C20887FFFCCF8091C308E92FF0E0E15EFF4D4A
:2007E00080839F5F903879F782E0E0E4F6E0858308958091CC018860E0ECF1E084878091A0
:20080000CF0187FDFCCF8091CF0181FF12C086E3E0ECF1E08287EF93FF930F932F93EBEC28
:20082000F1E008ED21E004BF20832F910F91FF91EF910895AC0182E08093CA0120E030E081
:20084000F9018491E156FF4D80832F5F3F4F20343105B1F71092CA01DA0120E030E00CC091
:20086000808198273896E417F507D1F79D932F5F3F4F2830310541F09C91F901E156FF4D76
:20088000A90141525F4DECCF81E008958091CF0187FDFCCF8FEF80930010E0ECF1E0809137
:2008A000CF0187FDFACF1092C0011182128285E38287EF93FF930F932F93EBECF1E008ED0B
:2008C00021E004BF20832F910F91FF91EF910895982F8091CF0187FDFCCF90930010E0ECAE
:2008E000F1E08091CF0187FDFACF1092C0011182128285E38287EF93FF930F932F93EBECAF
:20090000F1E008ED21E004BF20832F910F91FF91EF9108959C018091CF0187FDFCCFD901F6
:20092000E0E0F0E006C0EF5FFF4E8D918083E050F041E617C0F3E0ECF1E08091CF0187FD92
:20094000FACF1092C0011182128285E38287EF93FF930F932F93EBECF1E008ED21E004BFFA
:2009600020832F910F91FF91EF9108958091001090E08F3F09F491E0892F0895E0E4F6E00B
:2009800088E08583818384E08283E0EAF8E08FEC86831782858183608583848188618483D5
:2009A000838183830895982F8091A10885FFFCCF9093A00808958091A10885FFFCCF81E4EA
:2009C0008093A00820E030E040E050E08091A10887FF0BC09091A0088091A1088068E0EABC
:2009E000F8E081839134C9F50DC02F5F3F4F4F4F5F4F203082E138078AE7480780E05807F2
:200A000029F72BC08091A10885FFFCCF85E58093A00820E030E040E050E0E0EAF8E080918A
:200A2000A10887FF0EC09091A0088091A10880688183953511F481E0089520E030E040E04D
:200A400050E02F5F3F4F4F4F5F4F203082E138078AE7480780E0580710F380E00895E0E2CB
:200A6000F6E08CE0818328E02683E0E2F3E01182128282E5848385E08083108E118EE0E0F0
:200A8000F8E088E795E086A397A381E08683E0ECF7E02583089580E090E2A0E0B0E08093F0
:200AA000E4209093E520A093E620B093E7201092E0201092E1208AE696E58093E22090931F
:200AC000E32081E0809300080895109200081092E0201092E120843009F450C0853040F461
:200AE000823031F18330B8F5813009F0A9C00DC0863009F469C0863008F453C0873009F48D
:200B000076C0883009F09CC085C080E090E2A0E0B0E08093E4209093E520A093E620B093B0
:200B2000E7201092E0201092E12088E895E184C080E096E3A0E0B0E08093E4209093E52017
:200B4000A093E620B093E7201092E0201092E12082EE90E471C080E097E7A0E0B0E08093B7
:200B6000E4209093E520A093E620B093E7201092E0201092E12080E797E15EC080E090E2B2
:200B8000A0E0B0E08093E4209093E520A093E620B093E7201092E0201092E1208AE696E553
:200BA0004BC080E09AE9A0E0B0E08093E4209093E520A093E620B093E7201092E020109231
:200BC000E1208AEE98E238C080E093ECA0E0B0E08093E4209093E520A093E620B093E72079
:200BE0001092E0201092E12088E19EE125C080E291EEA0E0B0E08093E4209093E520A09380
:200C0000E620B093E7201092E0201092E1208EE694E212C080E096E0A1E0B0E08093E42085
:200C20009093E520A093E620B093E7201092E0201092E1208FE897E38093E2209093E32098
:200C400081E08093000808951F920F920FB60F9208B60F9209B60F920BB60F9211242F93AB
:200C60003F934F935F938F939F93AF93BF93EF93FF938091250380FFFCCF8091DF2090E0CF
:200C800024E0880F991F2A95E1F7E0E2F3E0808F918F2091E4203091E5204091E620509173
:200CA000E7208091E0209091E120A0E0B0E0820F931FA41FB51FABBFFC0187918093DF207F
:200CC0008091E0209091E1202091E2203091E32001968093E0209093E12001972817390785
:200CE00030F41092E0201092E12010920008FF91EF91BF91AF919F918F915F914F913F9151
:200D00002F910F900BBE0F9009BE0F9008BE0F900FBE0F901F901895809150008260809323
:200D2000500088E8E0E5F0E085838091500080618093500088ED84BF81E0E0E4F0E0818300
:200D40008091510084FFFCCF88ED84BF84E080934000809143008360E0E4F0E08383E0E0E3
:200D6000F4E080E890E08287938781E082838093000492E0E0E5F0E0968380936000809381
:200D800068000895E0E4F8E088E893E186A397A310A211A281E08093000487E080934008CC
:200DA00080914C0880FFFCCF8091E82008951F920F920FB60F9208B60F920BB60F92112420
:200DC0008F93EF93FF9381E08093E820E0E0F4E01282FF91EF918F910F900BBE0F9008BE3C
:200DE0000F900FBE0F901F901895E0E8F6E08FEF86838183E0EAF6E082838093B00088E192
:200E0000808BE0ECF7E084E0858388E086838CE08183089581E00895F894FFCFB00B00BE69
:200E2000EF00DEADBAD0D060600D0D06245265763A203230353620240000FFFFFFFFFFFF48
:200E4000FFFFFFFFFFFFFFFFFFFFFFFFFFFFFFFFFFFFFFFFFFFFFFFFFFFFFFFFFFFFFFFFB2
:200E6000FFFFFFFFFFFFFFFFFFFFFFFFFFFFFFFFFFFFFFFFFFFFFFFFFFFFFFFFFFFFFFFF92
:200E8000FFFFFFFFFFFFFFFFFFFFFFFFFFFFFFFFFFFFFFFFFFFFFFFFFFFFFFFFFFFFFFFF72
:200EA000FFFFFFFFFFFFFFFFFFFFFFFFFFFFFFFFFFFFFFFFFFFFFFFFFFFFFFFFFFFFFFFF52
:202400008080808080808080808080808080808080808080808080808080807F7F7F7F80C0
:2024200080808080808080808080808080808080808080808080808080808080808080809C
:2024400080808080808080808080808080808080808080808080808080808080808080807C
:2024600080808080808080808080808080808080808080808080808080808080808080805C
:2024800080808080808080808080808080808080808080808080808080808080808080803C
:2024A00080808080808080808080808080808080808080807F80808080808080808080801D
:2024C0008080808080808080808080808080808080808080808080808080808080808080FC
:2024E0008080808080808080808080808080808080808080808080808080808080808080DC
:202500008080808080808080808080807F7F7F7F7F7D69625C5A5A5D60636669707473732F
:20252000727174787F877B625F5B647491BBC7D0D0B5B0D3FFFFF0DEF1FFFFFFFFFFFFEACB
:20254000D3B3B2A48A665B6B6A431C0A05000000000000000000001C190700000E3235342C
:202560003428161F2D2E2B3B3F50636267798C9B9F9CB3D3ECF2EBE1ECFFFFFFFFF7D3C4CD
:20258000D5FFFFFFFFFFFBE8D0B4A69C9698A09C988D8D92A4C1D3D3B49072626975797129
:2025A0006A6355525C778D86776B563A2520253945474A4E58676C757F8B897771777E83F5
:2025C0007C726A6159575B626A736E66645F544D3D3230383D403C332B37404657635E54A9
:2025E0004E504F493A405768727D8794A7B7BBBCB9B8B2AFB9C5CFD8DCE5EAEDF6FFFFF614
:20260000ECE7E8E9DFCFC8C7C8CACACECDC8BDB1A9A9AAA99C8E8D8F8A7860574B34211A4E
:202620000C030D263E36394B5C4E4B576F6C5A5461626A6E7277736C6E7261605B4D4E5A37
:2026400052383440444246474C5051575147505868707577888F878080969B9AA5A897963E
:20266000ABACADABB3CAC2C1D2D5D2E8DFD9DCDDD9DDDFE5DDCAC6B9AFA7A1978D8D8E897A
:20268000846E543C3A3A423B434A403D3E4344424B63686A6B6152657376778194A3AE9D50
:2026A000A4A4A7B0AEA48F7C6E79727D7A7B75656478816D6F787765525452443348655977
:2026C00054555D5A5963615F514641545A5A576370726E7386928F93AEA69EA5B5BEB5B711
:2026E000C4B8A5A9ACAAA5A3ACB5B3B7B5AEA6A2A6A1A1A8AEA8ABABADBAACA9B1BCB4B132
:20270000989E9B907F827F6C5E67624F4A414C4C3C272D27191C32403F2A2F3E56707D82DA
:2027200089979292896D6A6D85838B9A8C7F818A7D80827A73766D736E72767178808090B4
:20274000847F7E6F7F797B867B82929295A2AAAFA2AAA089948E98A3A5999B8E8FA3A6B01E
:20276000C3C0AF9C97888C958C857160584D4E4B4D4F474F596768666766695C6A7E8A80E7
:202780006F738191A3AAA7A4A59E98A3A69D9F97838F8B78656E796F78676157596C6655CF
:2027A0006166635B61615A62727077766E79757C87848A95806F6D656E6D75717F878C82AF
:2027C0008689A2A6A2A2A19D96A0B4B3B7ACA2AC9B9DA6A996928485818E848693897D7DEB
:2027E00067696A6E6468736F65718480816E6B6F7076756F79757C706B7B8689888A75536D
:2028000059707D837E7E7068677375888FA19E89868386847481867E7A746C6763695E5E98
:20282000788183847A6C736E7D838496939383939F938689A7B19188919F9D90ADA68D8B01
:202840008D86807A7D8E746B6C6B6C67656F747D746A65756F717C766F717883776D8091B8
:20286000847F665D565A6881918E8382868584868C9898898C959297A0989B8DA0998B9479
:20288000858C8F8A7D7D7A7C7A7B77796B6D747D787776897D7B767A796E656B74757686FE
:2028A0007B797B7D75738383776C6B6E70767587908E898A808685929A96A2AD9A8E7F8E9E
:2028C000958C8F8B816F6E737F7B817062586B7D7F77716D6F757D7465646B7375879694E9
:2028E0007D716D7C888C8B8B8081898483898B8E898389838176798285969A9794908F8714
:20290000858A95989085939284867F7B7B6D686F766F6765636B787378807C6A7B81757352
:20292000818986849088868B8B87897F88857D85919286797F7B727E6D686F70646B7380AF
:202940007E8981807273838C807678808989878B948684846F6B757B635A60697271747828
:2029600070666D82848796949392A1A1969FA799999C879590979E9A8D93888A7F7D847FA0
:202980007B7E746C7978737772676B7275777782887877727779626369686F71797B7C76B3
:2029A000787A817E83938A7880848C9191979E93908B89838B908F87857A6D686B70788194
:2029C000726E767C76787E76777B7B79747787807A766E6B6F737F7D79858893999B8C7D6E
:2029E0008780828A879286828B8D8D9793848486909D938D929D958E85877D7373767479D5
:202A0000787A767674787A75656B6F75787E7478837B798178897E757E8888888A78757D71
:202A20007A79818F86776D6B797F7971737071737F8784787672728381747374737680836E
:202A40007D7F827D747D8886858C8B878687827F7F898C9794918E9295939A99978A847A61
:202A60007E868A8E8C83817D7A8084827F767476786D7279777571787B787678747A8685CF
:202A80008683857C7E7F8A8F8C7F7470797C7C737E8388818186837B8384838181807F7930
:202AA00073757C86898983817C717577726E73716B6A646870737F8175767B818D8A837FF5
:202AC00078787D7C86878C8F8F848E8B91938F90908C888D91908B8385827B87958D8B87D9
:202AE000848787828286878B8984807B787A7A797E82827F7877747674747574736E6D6D55
:202B00007070797F817F7A7E7D7B797D7A7C7F7F7B7C7C807A747575797B7F817D7A7A7A59
:202B2000787C7A7A8682737781807F8587858A8A91958989918E858686868684818784860C
:202B40008E8180807E8586868483828084868585868280828588878381797D7A7A7A828131
:202B60007C7C77747A807F7F80807E80857D818483807873817F787D808179797B7E7978B5
:202B80007A7870757E797774727274747F807E7A75797C817A7A7E7E7C797E7F83837D7CED
:202BA000828282857F77787D7F7F828381828584878990908E8B8B8B8D9697938B88878A40
:202BC000888A8F9187858785818386827E7B838783827F7B7E80807F7A787D7C78787A7DCE
:202BE0007B79737975716F72737B797276767574777777777D7C7E7B7C847B7978777C84CF
:202C00007F807E7D808483827E7B7D85817A7F838181817F7B81837F818082838380878A9F
:202C200088888488898D8A86837E80837F8083827C7A7A7D838387898786837F8687818129
:202C40008384858386868984807C807E7F82847C7878787978777B7A787E7B7A7C7C7E7CAF
:202C60007B7A787C7F828382817E7D7B7A7D7A787B7C7B7975787D7E7B7A7B7771797B7BEB
:202C80007D7E848586858286898A878484838286838082807C7E8181817F8480817F858BDB
:202CA0008789888784878589888686898384878381847F7B8283807C807C807D797C7E7BC7
:202CC0007D817E7E7C79797A7D7C7E7A7A7B7C7B7B7A7973736C564B474A4F4C485257595E
:202CE000607E96866C504A5463788C8E8A8F8B82A1A18372A8BB9285D5FFFFFFFFFFFFFFE6
:202D0000FFF7E1D5C2A4969A94794B392D16090A07111C1C1D283B33070000000000000080
:202D20000000000000000804000005272F2F2C2F42575E636E726C7385A7C4C5C6D1C2A3D8
:202D4000887C849BBCE3FFFFFFFFFFFFFFFFFFFFFFFFFFFFFFFFFFE6D6CAD5E7E8E7D1AD33
:202D60008A6F657F9699826F676569757D7A6D51413B49525448392D262523242A2E2825A7
:202D80002B353B474C3A333D52656F737D7D6E5D535554452F271F141824322E221A171D27
:202DA0001C242F2C232839494E637A7E7F80848891A2C0C8BEB4BDC7CCD7DFD2B9AAB2C419
:202DC000D3DEEDFAFFFFFFFFFFFFFFFFFFFFFFFFFFFFF6DCC0B8B0AFB0A9988A766863659F
:202DE000444650543D3E40585D58707B717B705651513E2C1D101E3044515D52483E2013BC
:202E00000E091108000D2C2D352E34242C3F38334F5751414053686A6E666A8BA5AFBBBD59
:202E2000BCBAB8BBCAE4F8E5DDE9E7EEFEFFFFFFFFFFF7D7DBD2C6CAB1959386796F626373
:202E40005F5D4B444D474B52594C36302718142C2A496686A4BAAEB3C9CEC1C1CCBEB6AD48
:202E6000B5AFA2A1A199AFA09499877993927559615F6157475450506B6B5C302E362A213E
:202E8000454A42291B1C25110D27393B393A44525D696779887F818F8DA0ABAEA6A2979860
:202EA000A7A1ADBFBDC7E1CBC2C2C0C0AEA294A7A6A5949AA2B1C2CDCCC4D0CBC5C1CBD9EF
:202EC000BCACB6AFA3AEA096887B6F65654633313E46495952665343535E7597A199827556
:202EE000676364615F4E4D4B4B586C5F5770707889795E6371735E728074697F7F657481B5
:202F000093927B8295917576928D73737482898D687369737F7D69676C6B604A5E5C515B03
:202F20005F707C7D7C827C756177898D8B92A4A49CB1BBBAC8B9C4C4C1C7D2CAC2BCAEBDAF
:202F4000BBC7C7BDADC3C6D4CECBC5ADA49BAB95916E674631353C3D493B2C3C40393C3E6D
:202F60003A3D322B373F4E4B48443A454F58585954605B68677F7E798D96938D95897F7A5D
:202F80008C7F81948C99A19F8E97A49C9189828E969B867B88A79E9BA3AEA6B0AE8D8378A6
:202FA0007E7C8376747372818B7F8C856F6E839C8F8B8989AAA7957C7D8C908385959E903B
:202FC0008F8E908688909C9582858A95839EB5919994887A8176726861656D5E606D78739F
:202FE0005D646A7669614B534D49535251574A474B4A576F746C63786A5F6466615A677712
:203000007A7D8A7E8B8C89746D748180636B7789999F8E9EABA99DA6A9B7B2A9B4BCAAA776
:20302000AD95A8BAAD9D8D9194919D9B857271839495746B7E938888908F9484908A8185BC
:20304000919096969599838D969281686B5B686D7B7A7E70756C6963574C62778B78767242
:20306000656163584B57625F647A6F6A68636663695845556A6B767E6A6A748578706D706B
:2030800082747277808183827A7F878E938D8E999987869399A7A29A87908E99989CA19995
:2030A0009EA9A3B2B4ABAAAFA7B2B2A99F9C9CA6908F9292898D90838979827D7C768A930F
:2030C0008D7D74777F7F7F86776E635A5D6B6D6C6B52486048404F5C5154615E696054504C
:2030E000484859625D505373797176787D80949287808C8E849298A595908B9E9EA49CA7D0
:20310000B2ACA29F9FA2A7A2958D7F7E6B7C7D777079755C5666675A564F5C615B6473734E
:203120007C807F7E94A09599A2969FA99B9BA8BAAFB8B9ACA4B4B3BCB7B6B2A6BAB19F8F2B
:203140008D8C7C69586C6D6D6B6A5B595C5B58516257403E504748444C564A495051525513
:203160006069765F666F7370625E636A687577787684838F9AA6A095969292A0A6B1AFB40B
:20318000B5AEA09AA2A1959C948B908F8F9292949E9589858F80807C849A99999486827FE2
:2031A00083819389807E80876D6673776B6D7B858F847F767077777C676C7A788789868296
:2031C000858675837F807E766877705F67665B5D6B7575756C6863627A8577777E78777891
:2031E00083828D8F8A85807E808580929C94887B717881767D897B7885827673696E6779D7
:20320000848E887D797F808275707D89828A8578727F89909585787C76807B8589988A816F
:2032200092999D968A93A5A4A2A09E9192A0939CAAA2928480808D968C787B837F7B757E84
:20324000786864687476695D6A6765666D635A55636B66656D77786F6A6D605E636E717349
:203260006D6A6B696F787F8E8E89958E8B989D94938E8083898B959E9581778A928E949457
:20328000A09F928B81858B8B8588888B7D77736A6C81898A8D8F8F877E7B7D7A7E8185849B
:2032A000888884828B7E777079747F70717E848487898E8A86847A7A89918981827A6F6719
:2032C00074848980757579807A807C7C735C57657F8371726F5B5F657C6D626E777579807C
:2032E00086857273798895A29C8B817F757B7F8D9998948D8B8885898F8D939084878F86B1
:203300007F7C7D8F8F88827E808690938A7172868A79737E8B8880787473726272848B87B1
:20332000827F7F827C86837D7C7975758397948F8177817F869A8D857866717A76777A73A0
:20334000686F777F949B897C6C69758374686F6E726D6D75777778796E6E77777B7D82788A
:203360007677848A8788817F8087808086848E9594918E8D9498918A91958D86878E958520
:20338000878B8A888E8B848586898783838485877675767C8487827C7B736F70736D6A744A
:2033A0007A7878776C65727B85848080817B737A7F76767E777A828489898C8C8D8A838355
:2033C000877F7A7E7C7A82857F7F727076777A7F7B757B7B757A7D7A747B837870747D7C99
:2033E00078777A7A7A81868886838382868784828D8986898B8C93958E8B8D8D89938D86FA
:20340000908F848185868A8A7D7B86877A7A7A776E706E6F7F7F7E7F8181848085887D78C1
:20342000828381766E73716F71746F6F727773706F737C837F7F7A7F7C84868D938984892C
:20344000868B8A87837773828982817E767774747C7E7F817F7E76848C8B8080888078787C
:203460007E838A8D8889888A8D86828B877F777981828687807F7A798387848D8C838487C4
:2034800086828385817F7B8085837E7C737271777A797A7B78727B797A8182837F777A7CA0
:2034A0007D85848583807E787A7E827E7D818788867F7D797D7E857E777B827D7575787A3D
:2034C000736A6F757877767A7674757472787C83817E7879818B89858683878E9190918F27
:2034E0008A8F94919492928E8C8B89898D8D8E8D8784888B888688877B7A8087897F7776BE
:20350000767273727677757174777B7D7B79767474787B797476757476797A79757A7B74D7
:20352000797C7A7C807C7C7E81858586898C887E878B85817F7E77777F7F7F7B7979777D9D
:203540008385848486837F84837F8088857F7F87827B7B868485858786828087858181830F
:20356000878882808684807E82868886818186857F7B7D85837B78777E7F7F787A7C7C7D43
:2035800080817D7777767477FFFFFFFFFFFFFFFFFFFFFFFFFFFFFFFFFFFFFFFFFFFFFFFF76
:2035A000FFFFFFFFFFFFFFFFFFFFFFFFFFFFFFFFFFFFFFFFFFFFFFFFFFFFFFFFFFFFFFFF2B
:2035C000FFFFFFFFFFFFFFFFFFFFFFFFFFFFFFFFFFFFFFFFFFFFFFFFFFFFFFFFFFFFFFFF0B
:2035E000FFFFFFFFFFFFFFFFFFFFFFFFFFFFFFFFFFFFFFFFFFFFFFFFFFFFFFFFFFFFFFFFEB
:20360000808080808080808080808080808080807F7F7F7F7F7F7F7F7F7E7F7F7F7E7F7FBC
:203620007F7F7E7E7E7E7F7F7F7E7F7F7F7F7F7F7F7F7F7F7F7F80808080808080808080A5
:2036400080808080808080807F7F7F7F7F8080807F7F7F7F7F7F7F7F7F7F7F7F7F7F7F7F7F
:203660007F8080808080808080808080808081818080808080808080808080808080808049
:203680007F7F7F7F8080807F7F7F7F7F7E7E7F7F7F7E7F7F7F7F7F7F7F7F7F7F7F7F7F7F4A
:2036A0007F7F7F7F7F7F7F808080807F7F808080808080808080808080808181818181810D
:2036C0008181808180808080808080808080808080807F7F80807F7F7F80807F7F7F7F7FF1
:2036E0007F80807F7F7F80807F7F7F8080807F8080807F7F7F7F7F7F7F7F7F7F7F7F7F7FE0
:203700007F7E7E7E7E7E7E7E7E7E7E7E7E7E7E7E7E7E7E7E7E7E7F7F7F7F7F7F7F7F7F7FDE
:203720007F8080808080808080808081818180818181818181818181808080818181818179
:20374000818181818081818180808081818180818080808080808080808080818180807F5D
:203760007F80808080807F7F7F7F7F7F7F7F7F7F7F7F7F7E7E7E7F7F7E7E7F7F7E7E7E7E6D
:203780007F7E7E7E7E7E7E7E7E7F7F7F7F7F7F7F7F7F7F7F7F7F7F80808080808080808048
:2037A000808080808080808181818180808080808080818080808081818080808080808002
:2037C0008080807F7F8080807F7F807F807F7F7F807F7F7F7F7F7F7F7F7F7F7F7F7F7F7F00
:2037E0007F7F7F7E7E7F7E7E7E7E7E7E7E7E7F7E7E7E7E7E7E7E7F7F7E7F7F7F7F7F7F80FA
:20380000808080808080818181818181818281818182828182828282828181818181818186
:20382000818180818181818180808080808080807F80807F80807F7F7F7F7F7F7F7F7F7F8D
:203840007F7F7F7F7F7F7F7F7E7E7E7E7E7E7E7E7E7E7E7E7E7E7E7E7D7E7E7E7E7E7E7EA1
:203860007E7E7E7E7E7E7E7E7F7F7F7F7F7F7F8080807F808080808080808080808180805F
:2038800081818181818181818181818181818181818181818181818181818180808080800D
:2038A0008080808080807F7F7F7F7F7F7F7F7F7F7F7F7E7E7E7E7E7E7E7E7E7F7E7E7E7E2F
:2038C0007E7E7E7E7F7F7F7F7F7F7F7F807F80807F7F7F7F7F7F7F7F7E7F7F7F7F7F7F7F0A
:2038E0007F7F7F7F7F7F7F7F7F7F80808080808080808080808081818181818181818181C8
:203900008181818181818181818181818180818181818080808080808080807F7F7F7F7F9B
:203920007F7F7F7F7E7E7E7E7E7E7E7E7E7E7E7E7E7E7E7E7E7E7E7E7E7E7E7E7E7F7F7FC0
:203940007F7F7F7F7F7F7F7F7F7F7F7F7F7F7F7F7F7F808080808080808080808080808079
:20396000808080808181818181818181818181828282828282818281818181818181808026
:2039800080808080807F7F807F7F7F7F7F7F7F7F7F7F7F7E7E7E7E7E7E7E7E7E7E7E7E7E4E
:2039A0007E7E7E7E7E7F7E7E7E7E7F7F7F7F7F7F7F7F7F7F7F7F7F7F7F7F8080808080802A
:2039C0008080808080808080808080808080808080808080808080808080808080818181E4
:2039E0008181818181818181808081818080808080808080808080808080808080808080BD
:203A0000807F7F7F7F7F7F7F7F7F7F7F7F7F7F7F7E7E7E7F7F7E7E7E7F7E7E7E7F7F7F7FCE
:203A20007F7F7F7F7F7F7F7F7F80808080808080808080808080808080808080808080808F
:203A4000808080808080808080808080808080808080808080808080808080808080808066
:203A60008080808080808080808080808080807F7F7F7F7F7F7F7F7F7F7F7F7F7F7F7F7F57
:203A80007F7F7F7F7F7F7F7F7F7F7F7F7F7E7E7F7F7F7F7F7F7F7F7F7F7F7F7F7F7F7F7F48
:203AA0007F7F7F8080808080808080808181818181818181818181818181818181818181F5
:203AC000818080808181818180808080808080808080808080808080808080807F7F7F7FE5
:203AE0007F7F7F7F7F7F7F7F7F7F7F7F7F7F7F7F7F7F7F7F7F7F7F7F7F7F7F7F7F7F7F7FE6
:203B00007F7F7F7F7F7F7F7F7F7F7F7F7F7F7F7F7F7F7F7F7F7F7F7F7F7F7F7F7F7F7F7FC5
:203B20007F7F7F7F7F7F7F7F7F7F7F7F807F7F808080808080808080808080808080808093
:203B4000808080808080808080808080808080808080808080808080808080808080808065
:203B6000807F7F7F7F7F7F7F7F7F7F7F7F7F7F7F7F7F7F7F7F7F7F7F7F7F7F7F7F7F7F7F64
:203B80007F7F7F808080808080808080808080808080808080808080808080808080808028
:203BA000808080808080808080808080808080808080808080808080808080808080808005
:203BC00080807F7F7F7F7F7F7F7F7F7F7F7F7F7F7E7E7F7F7F7F7E7E7E7E7E7F7F7F7F7F0A
:203BE0007F7F7F7F7F7F7F7F7F7F7F7F7F7F7F7F7F7F7F807F7F7F7F7F80808080808080DD
:203C00008080808080808080808080808080808080808081818080808080808080808080A2
:203C2000808080808080808080808080808080808080808080808080808080808080808084
:203C40008080807F7F7F7F7F7F7F7F7F7F7F7F7F7F7F7F7F7F7F7F7F7F7F7F7F7F7F7F7F81
:203C60007F7F7F7F7F7F7F7F7F7F7F7F7F7F7F7F7F7F7F7F7F7F7F7F7F80807F7F807F7F61
:203C80007F7F7F807F7F7F7F80808080808080808080808080808080808080818181808028
:203CA000818180808180808180808080808080808080807F7F7F7F7F7F7F7F7F7F7F7F7F0D
:203CC0007F7F7F7F7F7F7F7F7F7F7F7F7F7F7F7F7F7F7F7F7F7F7F7F7F7F7F7F7F7F7F7F04
:203CE0008080808080808080808080808080808080808080808080808080808080808080C4
:203D00008080807F7F7F7F7F80807F7F7F7F7F7F7F7F7F7F7F7F7F7F7F7F7F7F7F7F7F80BD
:203D2000808080808080808080808080808080808080808080807F7F7F7F7F7F7F7F7F7F8D
:203D40007F7F7F7F7F7F7F7F7F7F7F7F7F7F7F7F7F7F7F7F7F7F7F7F7F7F7F80808080807E
:203D600080808080808080808080818180808080808080818180808080808080808080803F
:203D8000808080808080808080808080808080808080807F7F7F7F7F7F7F7F7F7F7F7F7F30
:203DA0007F7F7F7F7E7E7E7E7E7E7E7E7E7E7E7F7F7F7F7F7F7F7F7F7F7F7F7F7F7F7F7F2E
:203DC0007F7F7F7F7F7F7F80808080808080808080808080808080808080808080808080EA
:203DE0008080808080808080808080808080808080808080808080808080808080808080C3
:203E00007F7F7F7F7F7F7F7E7D7C7B7A7979787878777776777777777777777878797A7B60
:203E20007C7E80808180807F7F80807F8082838181818383807E7D7975767E8B82929EA939
:203E4000A3A1A0A19C99A190899997949A97929396979A99969791949D979797928F90937C
:203E6000918A817A75767881817171665F6672797D7B796E615657534E494F514E52514D1A
:203E800053595B5B6161645D686D6462616265666A6C6E71777B808892999893928B8A7FE9
:203EA000777074797E787C797A78767D7879807F7D86909192989C9B928C9595847F868C8C
:203EC0008E8F919FACB1ABA7AFB4B4AEAAA6A1A4A3998C827B7C7D858C8E9296989BA0AB89
:203EE000B2B6B6B1ABA3958D7E7064605F595F62645E646663636A70716F71787671747593
:203F00006C6E716C68655F5F575154534D4F504E4B50514B46434A4D5051545A657279815F
:203F2000898C928F91969398999D99988F8F8F93908F8D8B959A9FA39E97959291857F7E3B
:203F40007B78706D6D737578777D7E8A959FA5ADB1B9BBB9BBB8B7B3AFA69F97918C8C92C1
:203F600097908581807A72706D6B66686A6C6B7176777671737D848F92919295919090907E
:203F80008D8B8882827E7C7A716D778084857C797B7B7372706D6C6C6B6B69686E6D6A6555
:203FA000666F716F737470686965686A696C6D7274776F7178838B92929698969B9A9A9899
:203FC0009E9E9A9391918D898B867F888A877C7B7C8586868B8F8C8E8C8B8C898284847BAE
:203FE0008083858E908A888685858C9197959291908C89857F7A767371717579736C6C6482
:20400000666967665F60666A6E6E6E6D75797B747579756B636566635D6162626265676D65
:204020006B717474706B70757D818A9390888683898E8E88837F83898A8584817B7B7A7B86
:204040007C848C8F8C8684858689817B8388838284848682879292959A9B9B99979A9A96F5
:20406000989A928A8C8883898683796E69756F6467686E726F6A6C787E78787E7F7F848ACD
:20408000847E7F83878D86858C888A88888583817A6B6D7277746F7B7D7B7A767A8387843D
:2040A0007E7F86848A8984828078797D7E7C797A7E81857B828986807E7F817D7879838600
:2040C00080828F958F88807E858887828687878789878A8A8B918D83787B8188898C8E8AFB
:2040E0008580828384807F7C787C7E78768486837D7C7F807E79736B6E727C7E7D777A7D38
:204100008384817C7F817B70726E6B717378706362677473716E72787D86857B7A7E8385BA
:20412000807B838A8C878588939EA2A097939798999C92827F888B8685888882787B837B22
:204140006E6F7A84807F7E808284807E848B93928E8281828794998D898D958E82848C88A8
:204160008889878F8D81767C796F77716B7170616167706D6F6C69646771747877737C889C
:2041800085838B867A8088838388847E797D7D7B80827E807970797E777C83706A78848852
:2041A000867F7B86857E7C7E7B787D83747086847C87847C838C86807B777D7E757B8A8B11
:2041C0007C6A75827E76807C76827A6F78818482786F72747782847B6F73869283848E815D
:2041E0007F7F6F788D89818C807C8384838785838490A19E9494958D8D8C7B7C7B6B6B782C
:204200007A756F7482837976747C898981878B8597999097998F9295827274788580797446
:20422000757D7871777C757C857F7078767B8B8E7D7F7D7172777776726A6B6E7D8075776B
:204240007774777E7D7983837073797679838A796E7A797E897D7A847C7D90988A83887A9E
:20426000768384777B807B74767E7F828685877A7D8D94998C828585868F8A858A887D7AE3
:2042800087847D848989919088858F927D76797B8B937A717B8786898E898B8C858682797C
:2042A000767D878470738388837F738B94827884817879726E7F8277787D817B73827F735E
:2042C000869085888A8487907B697576747F867E707579706F79736C7B837A7F817D7D7950
:2042E0006E78867D79797C7F756E7B838C887B747C7F7D838180848B8593887A7D848588D1
:2043000074727C828A806870898C8A8F83777C83828082868E94988F85889297A2948389E5
:204320008C7F8583707882776E75717A70606C7C75737273857B737E8891988875868A790E
:2043400077888D8C7E747F8B84727083908179857A7E878177837D7479837F76666C7A73B6
:20436000777F78827E7174888780827E859181798993978F888C8B898B8A8188887B8589B2
:20438000716E757B7D6D687D919584727C8D8A8380848A837D8099907A79757D8E89818910
:2043A0008A7F757B8B836E737E837873727C8E80737E7A868C837473797B78757A72767C87
:2043C000776E787E7D868172787876828B88837F7F7C84958F7C7F7B7F8B8F8A7F827A76E2
:2043E00082877F818985776F7F858B89817B7D868E8A877F7D8A8483848F8C817F86879041
:204400009582837F7A807B727C8883797A79697D837F7A7A727881837571867E7A7B737F0E
:204420008E876E72807C727780877B7372707F7E6F717B717D847A787A7067747D75788060
:204440007B7C75697688917B6D828E8B8C82828E8B8C8E9EA892867A7A7A7D7D78767A6E16
:20446000697D78727875788B828294948C82838891988C817D8C88787A8D8E96907C838DB1
:204480008A8F8777777B77747278797271726F789191757074757F878082887D837D828882
:2044A0008A90866D75857B787B7469746A5F7C7F6A736A6D7A828B8A8A8C8283898585906F
:2044C00092847E7E7C92A08675807C92958D8D7B808D817E8D988E8782767C8A7E767E743F
:2044E00073776C788489756B85948B8D96938F83868B86858387816F6A64698784705E640B
:2045000087867175808085877E7C97927C8682727D8188897A7362748B807F7B7E7F7B7DB7
:204520008280877E76898286807A8886766E67798B8E8C756E8091927E898E7681928C9339
:20454000897D8C8E8B786D868777726E78878877728B8D6C707993987C73929F92878C9604
:204560008C8E8479818777707986776D8280877D5E6D857C76707D83717476828B877775BF
:204580008695796C7C81817776818185817D897870848B8D8B7A728081746571807F786382
:2045A0006D7E7E7E6B657A7A7279808A8872668591928A8C8B928D83889096837C8F9A81B9
:2045C0007D838594855C6C988A726F656A80776C6D8086766F8388797B869290827A889825
:2045E000878587888A8B85858C8C736A779092736F78797F77677284747273767A7E808006
:20460000847C6F80938D7D8380838A887E84938581868C918A8A8D7C888172787A78727252
:2046200076727B8178727B787E8289887C7E817D877C818A7784827D7A818B8F828B8E8375
:204640008E868A847A857A7F968076897E7F797A787B8782737A71747E7783796E76838F86
:204660008B787E82888C8494938883747E8B7A71827E857D7B727794886E797E818F8A8103
:204680007A7672788B8474757D82827574838D98886F7B8B8F8684837C7E767D8679737B43
:2046A000716E7883857F7A7B7073888A8082797F88847E84928E7D767D868689887A7B8503
:2046C0007E7F83737E8A726E7E736878786F66697186887B7A7E7882837E91968E867A7660
:2046E00092947D7481877B7D858C87807670828986827D757E78738A8A7B7378878F857AA8
:204700007289917B8293878C81827C79888883817D7879899586817D7C8C7E7383867B7A57
:20472000717F848885757B7C838477767B79807F7A807675807D7B72889685868270848AAD
:2047400087756F7D7C79836C758977807B788476817F7E8479787D8092806E8381777976D1
:204760007A7D766B6F8A87778285848F8274858D9083818A91927C7D937E678191927D7005
:2047800079868F8780807F9582727A857776777B8683727D9D8D79748492928A83828682D0
:2047A0007C8E9A8D7C777B8B89756B7B85837879798F8D7E8180858B7D898776777A858EC7
:2047C0008E746C76838279727989847C6E77777F81857F7A807E7A8685747A878D8E85751C
:2047E000777C7C71797C7A7580776F81817C77878D8377868FA081758B858587828C8673BE
:20480000717C7F7A6E7F858C7F6E79888D87807C838E92878E92776E8587808573726E77AC
:204820007A7475777D7671797B838F74778C8785938B88858981808D8585776B7C7E776EA4
:204840007178787E88826C717B7A7C73726F79817D76837D7D787C6D7B8A8B848D877D82DB
:204860008991887889938A7A8084827D7D707C8C8B787079847A7076818782777A878F871E
:20488000818584817A8D8183828079878C81797D8D8881777D7F827576808083837F757617
:2048A000807F8283787E8B877A7E867A7A87837C7C867B7C7E7D758585827D78867C7A6925
:2048C000728689747A7F7C736B7E808077798A928080888E988A84838F927A768F858274AC
:2048E0007688948373738C7C737B817C7677828A85827D888977776F82968584767A8F8AB5
:204900008C8C7E868B99947D7D7F808E826E7D7E857870766E6D7D67718A7E717B857676D9
:2049200083878188718297847872838C80737B7F9088737982777E887D71747A7E85726BB1
:204940006A7682756476887F7D78717B85818A93837C899593887A8E948D85868F937F711D
:204960007A8F867B7978828A73757D91867273847F847F85978D747FA48B767C88839181EF
:204980006E7D8D857D7473828487868989706F7C82777C7A73777D7C7E7E847F797B807A77
:2049A0008386817977748788887788836E6F848C856D7878727B7D7375897C787E83807958
:2049C0007C868F796A859C947A6578838D7B767C837B7F7F817C7C7D75808D7681919181CC
:2049E0006F7E90807F7C7A847B727D8A7E7A848A8B9784728688817D867C818288787A7EA6
:204A00006C7B8F82757D797E799384818D84827F787C858A82687B8A897B88817E7E77859B
:204A20008F8D7F7E8586827C86907F7674728B8E72727D837E736584907B68788785868887
:204A40008C8581827B8BA188727695897A787D8D8A797080847A6F76787A76788083886E62
:204A6000697C897F7D7781918274778A887E7A887C838883858C8777818B857F88827B7A1C
:204A800077757083847C76777383736E787A8B7E7A7C908B8A777F91937E80928A82897529
:204AA000738F83737D8D776E767C81797B798F877F72809988727C8896987C7D80897F7EE4
:204AC00079817A79857E777574778B81747C7F707A816A7688887B827F7989917A76848135
:204AE0007F7D93877F8588818A917D78757C6C75727E7D6E6E768083756C7475887A6F7F35
:204B00008F8474808F8C818F8A8E8A7B7C9496846E77868A89796A7D8A755C799B80687077
:204B2000879377718291877872858E867B798890766C7F9E8A6D82928B857B7C829587712A
:204B40007B8B777B83817D74738096876C677C81867D7A87887A737C86887680857F7F7A92
:204B600080828C79799385767C9190757884878F9478657D927D787D827E7A728487737235
:204B80007E8E7A66728B8B84717387857F8188888083707A9E8A6D82958F78759195807EE4
:204BA0007B7D858778828E8169777B797F7571748176726E8A877875758482717792827778
:204BC0007F7E7D918F7F8A8A848688878E80777F787D887566867A6777897A757B7F7A7DEC
:204BE0008A8174848D87848182908E81748D8584808A847F768690847B7D798680827F6A6F
:204C0000828D7C697D9382727782877D7B87807D857D8289868B897E89908686878079775F
:204C20007C858B816C778B8570728378807C6C7C9783767E7E747C7D7E81787D776E8389D5
:204C40006D7A8D8A737D897D7C7B758A8C7E80798491856C687C948672837E7C827C78847A
:204C600084737A837D787673808A7C7E7283977E7387857D828E9183787883858573767856
:204C80008A7F7A8287888C878A8E848C8B828E896B78907E727A7870706F77817E73787D1F
:204CA000818D78828884858A8887888C83727C8B82889377757A7D84797B75807F707C8BCF
:204CC00075767D7C8276818285847C737C82887E7E83847C777D878D7E86868186889689B8
:204CE0007C7D81848178747C7F796E6B7A7D8D887079857E828A8C89818281928A76828CBF
:204D00008179737B8F83837F7C81808589818A7D6B7E7F837A6D77858271808785747B7FC9
:204D20007880848181847D7E8C8173858881846B7B838A776F788D7B7C807B7A7E786F77BE
:204D4000877F72838A787B848983757986817C777D848E866E6F7E8D8F757485867880806B
:204D6000828B7B878E8374808887707E82718490816D818974788A8D85847F7D8886817814
:204D800086827E8083767D8C87767482828E7E7982876E82897E8173808A887F746C918F0C
:204DA000706F8279828C766F83896C738F917871898F847E7F7D8A91827E7C87827A757F0E
:204DC000776D738985766D68818A827D7E9091747F907E788B827D8E8374768C8B7A688300
:204DE0008C7E8084777F766C8493806A7883837B7880858D82887F84889290727B967C7B98
:204E00008B8C8277867B767E85807E7A7D7880867B84866F7B8A7378948F7E6C6B829C9289
:204E2000777D8185777C7D8D858E807681887F7C87907463878A897A6C6E83816A728677B5
:204E400071776B808D86737B939080758490947D7E868A7F7A8B8C797C756E838E70677370
:204E60007F7F7A7A737F897A6F7F8381858C7F78828B858D8883767A88938F8A717A948301
:204E8000707F897C7A756E797F7C797E6D768773719188786F829789849393817D8E9D9102
:204EA0008A8782918A7674838075736F6F8181676E7C73687586897E707E908373748E9A51
:204EC00081757B9396847882949674728D94898376848D7474839A7A5E687C847A636D81E6
:204EE0007D6F65788B807B817E86868882869B876D8695918474808B7D7680867F6F807CA7
:204F00007877787D7B778283797B7F828A82796F8A927E8276758E7F777B8F87697D9190AA
:204F20008470708D9D7F60709282767176868779747F857B6D87878D85797B96937C718F84
:204F40009787868186837E778A7F7D7D767489886E66758584727E897A788E8B8079828758
:204F60009186767E9187847F807E82968A6A7387807981867280897F8376777E857E737732
:204F800089807B887D7483807A878C848B7C668296807F82867F7C7984736E85797676763B
:204FA00075817279787B6C848F827887928382838D7A827F7F898A7982877D848070748BF7
:204FC000847972807E7D7D7E7B7E7F71788681767F7A7B8C817E827E8C89797C8E838381F0
:204FE000818A86757E8A8C877D7C768D8B735E8992826377848D7E61749C7F6983878483C8
:205000007D78888680747B889684717E918E80738B9C78677F838585787777707C7A7C879A
:2050200083778279758487858C827277958B7E7980877C7B847C8B8675838277818E818058
:205040007B777683818188838584737F9088807E7D7F7E737C8975717574777F768382789D
:205060007780909380828682848877808A8676797781837C7A8584757A8A95897D87897CF0
:205080008089807F807677817B797B797B777773859380727B8E8F7D7580928D7D747B8E29
:2050A00083837A7B7D858378818C7B7489958A7A7C89897F777D8A857A74718187837370FD
:2050C0007D8E7C767379867A6D6E76858A7181827E867F87938C7F888D847E847980877AD6
:2050E000746A7F857D74747B7F7D76848E85757B7D7A787F827C6D837A7C8E8D7E768E8EF8
:205100008B8E8589937C728482858478777376817680887D737A857E7C7C7A8579787F8DA0
:2051200082867C817C79909283858E9083818C828A8C8A7F8279817F7D75757A737785753C
:205140006A74717874726F838773707A7C8E898087838D8380898B84888B737389867A7491
:20516000767682867B767D8F7F6C7481898F797786867F7C8A7F71798980877A7B77848D4F
:205180007B7585848783737B928277847E87888A7C7F82888275798B7E7C7D8389847C89EC
:2051A0008977778A86817E7B7D8385887670837D7C7C767D877C758683777E86808181751D
:2051C0007C8A7E817B7E817C858E7E7B7D7679968377788287937C75858E77737D83817ACF
:2051E00085856E747F79837E767B7A7D878A847E84838093958181858B8B777D827B84818D
:205200006F72827681827F7A7E827C83827C857D82818584838F867B8181828583877E7892
:205220007C7B80848287706E7D85827574828479737B82788D917167839183757B80757EC8
:205240007A858F776A80857881847E7C8D83717E90867D817D83827C7987836E717F85816B
:20526000847778898E7A827F8683827C7D7B7A7F8281807C8081847D86857D878474808326
:20528000807B7879807D827F78847D75857B82848378818E8481827B798381707D8B857A30
:2052A0007480887C7C8B8182807A8D8C7D7684857D78877C878579687783877A80827F81FB
:2052C000727C8786777C848578858889857D858D847A81858781826C778C8E7A727A8581BE
:2052E0007D7C7F817B7F7D7B7D8A7A857F7A757582968F836D889586868D818C8077888B76
:2053000085737276787E7E687D877D7064768E8F807A798C7F7A828985807E8587898A7EC6
:205320008183807979828D8D7C6D74877474878C7071797C867F777D7E818186797D8A86A1
:2053400077777B7E8B81897E76727C878C787C8C7E77828A7C7F848773777C8C86767B7D6F
:205360007B827C7A8A81717E827C8E8F837C7D848B8585867B798186857A758780776F7B33
:2053800079818179787B7A7E7F78838787797E818A84787C8679818A857883898A7F798A0D
:2053A00082868275798581857E737A8B84717C86857974758E81787889817F8188827D8204
:2053C0008281797F7F8585837C7D747D928B747284897E6F817B7F7E7F797A828B837970FB
:2053E000878E7D758D8E776F7F8787858A7D717C7C8278797C87857D7A85767889837977C2
:205400008488877B8476817E877F7A868E847275848E777F827F727A858777818480847491
:205420007F90857B817D738185807883817D7A798393817E7D7B848487827D7F8685807F56
:2054400085858171707B7F797C837C6F6D82917D728284809487828284898A837A8A878347
:205460007B87857B788F7F80828B846E878C807479868C72797C7E877E7C77787D84737555
:20548000757B747B847780776E8395847A89888F8F89818999897E897D7D7F7E7F798074E9
:2054A0006C898C796D708083797D7E79787B857A73848D7E7779867C7E8D856C7A88848439
:2054C000828382867D7A8A8D7E7F86817886897B7482857F7A7A7D817B6F747E777B8B79ED
:2054E0007B7C87857C777E8484857F797E86878E7E6D7B8C8078807A797F7D6E828D8686B8
:2055000081768585897F84877A728E877C8684787F867B85817378837B7B83817B7E887F8A
:205520006B788D887B7D82787F7C7D9084717F86907A7B7F82828D7F71858783768084826F
:2055400082767C8D80677D8F8C7E7171808C8E74758189857D7B7C7E8378818B7F7A77826E
:205560008779727B8188857E7E7C8083807F7F7E8578868B7F787F8186887F6D7E90847E2A
:205580007C79778990836C7A7D7A7A8479797489858673819B90838987878F918C7E7E84C9
:2055A0007B7A8082876C6878858B72717F77768185817882807A878B737B9194816B80882E
:2055C0008E816B788F887D78808280797F7E8A8076787C868379727B868175787578757F1D
:2055E000897F73777B898B7C808D8C827C8084848C857580837A737D7E7D69757A847A73D8
:205600007A8182798B938C7E8187938C7E788693877F7F768693796E8586787E827A77784F
:205620007B807E86877F717888837375818B85778481777D8D8F86817F7D888D7E6F7A8D60
:20564000888A7979858D7A717F84737B817C7D7A71818285817478818481797D81827A7E87
:20566000898D7F7378839078677F88897E747B958E7E747D86877C76858473747E8995702E
:2056800072888D7D827B8189857F71818586766F7D897673717D87726F807E8C917C80803D
:2056A000898E8585839285788988857B828284757882767378766B76787A7D7D7987747F18
:2056C000858A878F868E9086868780828E7B757A887F80746D727B828C857F7B7B7E807F9A
:2056E000828A8B7E7277908573818780807E7A7F8E877D787E8991847C87827E7E8484797D
:2057000079828C78747F87857784817A7C847B7A858A7E767888937B7A7E847682867C76A3
:205720008185837A727E857E80787A7D7E89857678858C7677888E76787D7E7F7F7C7E7E97
:20574000777B85756F7E8775767C8885848482817C8689838081817E7484877C7584897A65
:20576000747B8F867B788D8F7B757F847E758686777F847B777A808573788A857875867F4D
:205780007E838F8B7D75948C78878C7C7D838A83707481877A687E7E767E7E7D77738F8E08
:2057A00079807D808881848C717986847C7C857B767C7F7A7B748A89806F7288848285820B
:2057C00074818A9C827D8190877C888B817B8A828373758B8274717C7A717C8874757E7BD6
:2057E0007E8286867B748792886B7F998F827F827C7D8B92807070838581867D7D7F838374
:20580000857884858A726B83847C7F7D7181777D82858481717284998A757781867D7B82B3
:20582000838881778A8071838D877D7F777F86857C756B819078748289846F788C887D8274
:20584000887C798A86787D828B71738588797E7F867B6C7E9788707E8C8177808B87787F4D
:2058600088807F8C82837E7D877E767982756876816F767E8D826E78878B85877D8180894E
:2058800082857E858C7E728481837E787A7B7C7B898B807784807F848581716F7F817D8221
:2058A0007F817C7887907C77858C75737E827F8880817073938F887F7F7E807C909D7570D2
:2058C00086887C7379857F727A837B7988868482797A7A87928C706F868A7A767E898475E6
:2058E000797C837B7F7C867E768084838A847176828D8C7A7C857673818C86807D818677B7
:20590000808D847B8478797F868A897173828384827D837D7A7B7D7279867E727386807EB8
:205920007B858779738B988F8182888781878185817F74787E7E837A748380717A827F7E5C
:205940007080867976808B826F7C898788838185828C847A888B857C737C877D707B7E7657
:205960007B7D777C80787A7A6E828A837F7F827F7C848E8B867E8184847F858D887D7D8417
:2059800080817F7A727B7F817A83868579727F7F847E7B8382787F82848F827A7E868C8510
:2059A000828285817977888D87747A8A77767E82807876777C8481777E808B7B78898D83FA
:2059C0008377818B887F888380757A818179767E7B807470757B7B8B806F798484897C7512
:2059E0007E7F80828981827E8187867F7C818D887D777E888F786F798484757A79737182C0
:205A00007C82827C7882888E7C777F8E82817C7B847F8680827C7E8587807C818081898563
:205A20007C808688757779828D7D727C867980807E808075827F7D837E7F827B7F9083807E
:205A400087828686857D8885857C7C7F7F7A7B84777882787589787E806F7A86897F817465
:205A60008181847A7D818A86817E848084897A80837E8A8E807F817A8C7F768187818177F9
:205A8000768279727F87767773817E7C7A7E737A887F7E828A8279778D8E838591847E8321
:205AA0007986907C74807E857C6F778E807A7A7D84827F7B7C7B7F8484827A7D82827F7910
:205AC00079818B7E74777C828A7B7A7C807A8184877A757F8987807E8B93827A7E878B86AD
:205AE0007A7E84817D7E817D7D75787C7C737E81817E7575868F7F7D818A7D76808B8C84C9
:205B00006D7C8B86797F7F7B8179767F817A807A807C7A8198877A6B80948F7A7C80878199
:205B200081807F7F84808075788075827F716B7A808A7777817D797F7F84858989808180A0
:205B400088828F8B7A7B87848C8A757E86807985828B8074757E7A77767B817A7376717970
:205B6000897E7B7A7C80818A8A8285888A84908B898A867D7C878580877F74767A858874D7
:205B80006C7D7C807979827F72777D7A8081827B7976838A8282898386868D82808E8B7718
:205BA0007D8183838481817A807E777877797F73787775828580717B898281838085808522
:205BC000877F817E7E868978797F83807F79797A7C7E86837C797C83827C818478858A87CD
:205BE000828C857E7C817F897775897B74727B8C83787F75738F84797E86808585848281AF
:205C00007B8988848189828A7D7F88827F858080837E7279827A727E7B857A6E848676789C
:205C20007A8392787785888D8B76748B8F887E7E7A857F8681767982817B7B787C7B827F5C
:205C4000807B778086837F7F738182838577747F7F81797F8475738A897271858881797D85
:205C60007E868A8D807D7C7F838386847B6F898D7F71787B89867B7B798481818081747B2A
:205C80007E87877E737C85857F74818E7E767F8380827C7C8582797A8489817C8186817B08
:205CA000898D88817F8385847F7B787F8384727C7E7F7B7A7B7D6B7B8C8075777A8C8B7902
:205CC0008282818D7C7C888A847C7289917D758183897871828877778886797C7E7D8988AD
:205CE0007A817F8F86787889858280747F81797E897B77777D878A7280867C88827C8482AA
:205D00007785837F8284797B838A817B7D8A94827A7785897E7C78797E7F72787F817A7AA0
:205D20008286817177888E7B7B828B8B797F7B7C80847F7E84837A8488897F7A8385867D44
:205D40007F7F807A7B7A7378887D757A8681767B837E888473828B7D7E8A857D7E7E838567
:205D600082857E7D8285847D777E7F7472837D787B7A7F7B7D7E7B8282848178858A847C52
:205D80007A828B787A9283747D888579757D8A8A766E7E83847B786B748A7C66828D7F744F
:205DA000757D8A8484878D877F878E8A8E86807E7A84857B89807B8183807E787D767B7FAB
:205DC0007677747C80737D71778F87828A837D8B8C8985868B8A8B837B877F8181797B7CAB
:205DE0007D89858178708887777778807B77807A767B79887A6C7982818283767C848B8EE6
:205E00007E7F888A7C888D8684848C8277767E8788757076797B7F797578747578858C78AE
:205E20006F7A8E9376748B89898C827882848587787F887A7F8C80726D7E8B81717587825D
:205E400080837A81887C86837B7A84868183847A7F7E85897A7484847E837D82857678843E
:205E6000918A7A7B87858A7C6D7A8D897D6B7582877D78827A717E7E8D8A7B7C8B8C84791D
:205E800081888E84777783887D7E878077787E8889747383857D7F7F7E7773807D7D82831D
:205EA000767B8881777C81968C71848E858082888978737E8A80767C7976797F85807F84E3
:205EC0007C7284807C737A8B8673717E8D8A7F7B787A8397937E7C898887837D827A7585BC
:205EE000816D66768B847D78697B8F8F8169758B837F798288757D90887A747E97917675DA
:205F0000828E8A7D7E807B82857D797E7566789186766C7F928473787E8C887B857E7C819D
:205F2000858783837E7A868E8684777E8C877277847E7B737D7F7A7D82747983827678877C
:205F400089857C7981878587887D78818D8272778C807B807D8479798C876E70818E7C724C
:205F60007A7E80828B7D7981847E85848880817C858B797C8A77757A7B8280828479787C30
:205F800084827C7883877F76788A8887847C828B86898283867C848884917B78928E7665C5
:205FA000788882716B748278838671727C807F828785787B8393827484928A757B898A86F8
:205FC000878E80767D8D897E7F7C727D8589736B7E818373677E7E7B827B72738194807411
:205FE00080888078828D867C78848B7E778A8686817B7C7C88867A7380837E737E867D74A6
:206000007581817F7380808383837A8084857A7A808386828886877B7A888E827A80837E6F
:2060200079807F7A777F7D78787F7E6E78838A77818E8E847C7F868C808786858583817D5E
:20604000818586787A817D71798186716B7A82847D787D7E7F7D7E86827D878A7F83837E74
:20606000848C897378868B857A7681807D7F82827A7886857776838A7C7E7F767082897D37
:2060800071767C868A837F83778394837983918C7980848281847C7A6E747F837B79827812
:2060A00078758684787885817980868982858A827C868A877D79837F787D7F7D7C7B7B76F4
:2060C00076818485837D767C828B8D86707A868B7E748089817680817E7E7D897D737E83CD
:2060E000818B897170848A887A768583737A828A8979778B86707A8A898082827C88898A81
:206100007F768388807B8A8C77727A8B8277858479797C7D7C7077857F7A878277848D8D94
:206120007B6C7C928D847F7C837E888B80767D89817C7A79818081837C7079908B7569708B
:206140007F827F857B6F7A8C857C7F7E7A85878A7D7381918E7C6A818C86837E7D6F78834B
:206160008C867C778281867E757B828681767C82877D747A7E73778888797A867F7A7F8B40
:206180008585797E8D867E87877A7C8487817A7D81807C808974727C88806E797F7B7B7822
:2061A0007C7A727D8B8683807B7B8584837D78808E847E7B8F8C8383857E778088817675D5
:2061C0007981817B7B73797E7E7C7989837E80898B827E848E88878385767C83897B7277C8
:2061E00087877E7481837C81887C747C8085887979817F82857F78778791847F7F7F818894
:2062000089877D798490827B74758387847B6D75838C7D6F737B7B82867970758491887CB0
:2062200078808C88887F7C7F918D857D7C7F87877E7B737281877671737D7F79827F797880
:20624000808B7D787A848B827E848282888A867A7F8A86797D837F7E80807F788184817E1B
:206260007B7E89858883797979887F757D828379787C777B807E807F7F7F878983847C793D
:20628000888F85747C8D837A7D7D7F847F7A7C7C727C89837A76767A838582737A898A7C1A
:2062A0007780829080797F827F7E7F7C81827D787A7D8B77777A838B807B7E857E807F8BED
:2062C00087897E80887A777A778D897873828C85787583857D7B87827E807C80857F7B79CA
:2062E0007F83847B76778C887F7E887F77848980757E848A7F76808A808386897A7780828F
:206300007C797777867F7A7C7F7D8379748287847B7F8C87807E838B8D7A7F7E857E787698
:2063200083817F6E7C857F837979837F787C848A8580818B85777D8B8C898072778C827C56
:20634000797E837F7F7D73817E76767E7B818889807C7B7A817F85867A767D7F837480857B
:2063600086827F8281877F827781888685878381807D7A7D817A7887787276797E83807A33
:206380007980847E7B777A8485828786858389847F7C82848B837D7E767C87807C7F7D84EA
:2063A00082837772838B867F7C7F848586817A78797C817E837B75898A80787D868B7F7AE6
:2063C0008488867F888782857D828B8076777A7F7A7A7978867C747A7B7C7B8081817C7AE7
:2063E0007D878681838284817E7E807E847D7D838486807B8480787B82817B80817F7577A7
:2064000083857E737679817B777883827D7E82868180798388867D7A858B8B80797F8A8181
:206420007D898576747C80817675808B827B787B797F88807E8084858487887B727C8C8372
:206440007F7F817E807B7D837F7D81857E7C75788B867F787E8787887F777A7F7E7D848150
:2064600079788487817D7C80898484787583837E818387847780848273738182827B7C8135
:2064800081798B897880898C8080837C768689847E7F87817C7A7B7D777E8481757B8484F4
:2064A00083807D7E84857E857E7B847F838487857A7E8C7E6F7286877A7B7B7982817C78F3
:2064C00080827E7F8381817F7F858A7F79858C847B7A797F83787E928172757E89827677C8
:2064E000847C827B7A808281777D8787847F818583787E888C827D878376777C81877B7E97
:20650000797C838478717C877B7785867F7A7A84847C7F838C847D837E74828C887D838580
:206520007F85817A7777828880757F827F80807D79747E8A7D736C82807E807D7F847C82A3
:206540008F83787C838991867A7D858D857874837D7A7F7D76757D86857D78808589817437
:2065600075797E87887A78898A7D807F777C8489837C7A868E847B84827F868E8A736D7B15
:206580008E8A777685877D7879757D817F75767C83787D83877D798D93827B77818B838404
:2065A0008588887F83837D79777D8083807474888371797F8A84747A82797D7D7D81818305
:2065C0008089857878807E8A7F7E81818B847E8689807E828E826C76828576707D85807DBC
:2065E000777D7D747C7E7981847E85878C8979838F8F7879868B777B82877C748387857D8C
:206600007A7A7F7E7F747487857D77767E7C777D82867C747F8F88807F8684828B8A848488
:206620007F85817E85827E7F84816F6F80817E78787F797C7F7F7D7B7F89847D7F83898083
:20664000828B897D8689817B7C80827981877C707884827B7682837C7B877F76808A847F3D
:2066600085807F767F8982777C86887C7B8380777F8B88797783817F7D7E8176808C7B772F
:20668000777F8277777E7E7B7D86877F767F858083888377868F887C7B7985807E84787811
:2066A00079808478738387827A7A7D7B8084807D777D87868082827E8385887E7B798681ED
:2066C000797982807F86867F737D88807E7F7A7B8284847C7D81888177828E7F7A7E8282C3
:2066E0007F7A85837983867A737B88847D80827F767B8D83747E8582757B877F7F8A7F7DB0
:2067000081888B83797E818676778D86786C7F8E8079838084847C847F828A80798585855C
:206720007B768584757283877A7E86807B777D88807D807F7A808982737C89857B77898A76
:206740007E7D87857C738A90837C827C7F8284857B778284746F7A7D7B7C8281716F8A905C
:206760007A6D75868E7D838E7A7B8C88817F83868286857C73778E8978727C84887A717A28
:206780007F7D86847A737982847E7D7F7C7D8990776C808B847B7D84847B807E837B7E8311
:2067A0007E8585817A7E8183787388847C7B778689747480877A788086858180877F7E86E9
:2067C0007D7C8483807478888877757C8A82777380827C87837C83877B82837F81838991B4
:2067E000877675838D85737F8F816F7B867C79777B857D7B897D7B837E7A7B8089867B85B6
:20680000877A73858B85808487857D7A8A818083897E7E7D837C767E807C727B887E747092
:206820007A7D7A7C877F7A807F817A808B8D858985827E828D887A7F867F7E827F6F707E55
:206840008278767A827B75757C7F7A7E85877678868D8483817E828C8883817E8482817F43
:2068600086807C7B8581717784887774787C77797E82817F8284837E83838679768587863E
:2068800084897F798082867D7F7F7F7D827F7D7C8586797A85877E7B7D7F78798386847D00
:2068A0007A817B7D88807C757D86807A7D8681838884817F83917E6D79888A88877E7D75D3
:2068C000777F807B7D8180797D8383787E88867A7D8B817D7A7F847F7D8A8F8177767C85C8
:2068E000837C7B77808672738180817E7883847A7C808B807875848C867F867A77848883B4
:206900008184807D7E877E747985857C71788584796F7A787A8A847F817E81818385858896
:2069200082848C7D758188847C80827D7E7E8483747785827C7D827D8083807B7B82828859
:206940007A76848177817E7B7C81867E747887847E858D877F838589767E88878B83787F2A
:206960007E777D777679838177787B7B7A7B8582747F8E8377767D85898284807D8A86804B
:206980007B818586837F83807B838283887E7B887A79817872847F8080807E7A7A787A7921
:2069A0007A8085807C808682788590817F86888B807E848284878581817A748087797578BD
:2069C0008087837E788086867B7D7B8181807E85787E7A8287837F7E807F807A7D7F8388BA
:2069E0008581837E7C7F797D7778827F887D6F7A827D7E85867D81827F7C7C86898B8681A1
:206A00007D84837A7B7F818C7E797C827F717381827A7A7D7A7B76737C8684817C838285BA
:206A2000827D80878B80828B847C807B82837F8287867F7A787C7B7A7E7D7E7F7F76717F6B
:206A40008578808383817C8187817E7B7F898584807E807F7E8382828183837D807F7B8320
:206A60007D7D807A7E8078787D7F837E8385837D7D81817C87817F8B887B827E7C8080841F
:206A80008381827D84807D787985887E7E887C7B757B838582767B88817B7C7E8181847D0D
:206AA0007987837A79817E85828187817E7F7982818087807B7A7E7D7B86847983848182D9
:206AC00078757F7B7F7D7E80868A80727783827E7486867B7A7A81898180838387877F7DCF
:206AE000817C797B858C84827B7A7E7B7A77858679797E7E80787B87867D7C80808A8878B3
:206B000078868A878682867F78787E8882837C84827B7A80847E8083837D7C7E817878787F
:206B20007B8A868278788080787B82877C7E8A867D7A868B8682808087887A78797D828346
:206B40008387867C737582807A717F817A7C727C89827C7E828488877B7B7F7F7E848E8949
:206B60007E787E857F78737E87827D7980818487807C7C7E8B86797E7877828688857C8427
:206B8000837D7E777F88897F7C7886847B787A827D777E83827C717980838381858078792A
:206BA000797C827E8680828C847C838A817B7E8A837E85827C7B7F7D7B7E817A7C76797DE4
:206BC0007E7D8085877C7A808177777C80827C817F7F7D8386868584828783787E837E85B3
:206BE000897E85877F77787A7D827D818180807F7F84827681857D807B7C7D7A7B7A7D8AB5
:206C000081838283847C7D7D7F88847A8187807F7F7E827F857B7F87867D8284857D81884D
:206C20007F8374707C7F8083787D7E7A7E827F7B7F86847D8380837D7E87807C8585818272
:206C40007B7E7A7F82818385827D797F837B7A7B798285817B7F88827384868480867C7B4A
:206C600084817C81887F7E7781837A767E817C7D7B817F7F77797F8781787888867E7B8240
:206C80008789867C818D81787885867D7880867E7F7C7E7F7579797C817D75798583797B1C
:206CA000818883777B8688837A818982808B8983817A7B7E857E77787C7F7F797E817F83CE
:206CC000818380777C88877E797F828B8A7F787E807C8081777B82897E81818084847E7EAE
:206CE0007A7985827E7A81817B8285897A7480828080727A88847F80808283818488807BA1
:206D00007B828885767A7E847B7B767C817B7C807E7F857D81817C79808F88807980888782
:206D20007A7E7F837F807C7B7A80827D7E7E7E7F817D827F7E79838680818782877F81865B
:206D40007F7D8381817F7B828186827E7E7D818375757E807F7F80817C838379767C7B855C
:206D6000847B8280818389827F838584857A7E838084857C79837F857C72767E797F837422
:206D8000747C878B7F77807F7C8686787A80848586797C81878679737D817C7E7F81828109
:206DA000828289827C7B7F89857C777F81867E7A7F8183817B7E807A7E85877B79808989C8
:206DC000837F7B7C8487787C847F7B7E7F857F82817D827E79757F867F797A7F85858284C8
:206DE0008281868186847F85847F837D838581857C7679737C827C79747B81827E797E83AF
:206E00007D7C8081847D82888183878288827C7D7E80857A7E81817F7D7D7F80857B77826F
:206E20007F807E82827A7A8683797E837B7A797A7E7A7B87897E7D7F8184837D7E7F7F8B69
:206E4000877E857E7C8781797B7D817B7B7D7B7B737F83817779808B7C768487827B7D855E
:206E60008884807E8785837E7781877E757A85877C79807D807E7B82838683828482827A06
:206E80007B857E7D82847D7F757C7B80807A7C838885797A89898682818587837E7A8083EB
:206EA0008383827F8182817E8085858380787C7F7C7B7B81827C7A83857E747A83807D7BEF
:206EC00080837F7C80807F8184807E867E7E7D85877D7D8386837E7B80878076777D807DBA
:206EE00082807C7B7A7B7C7E847F7C807B81847E7F82837D7C7D7B84887B777B79817E84C3
:206F000086817C82858483817C868A807D7A838B8B7E787882897E757C7978808382837D65
:206F20007A80807C7D7B7A8B8775747F878B7F7F83867F857C7B837F7A7E8085817D818657
:206F4000827C80827E847C78807A7B7F80847D75757C7B857E787689877A7F81828A837764
:206F60007E8087807B82857A7D84848083847D7B8285827B77857E7A807E7C7F7C81827D1F
:206F8000797E8683827D808888827C81828383817A7A81817C83857D7B80877B82847E7CE6
:206FA0007F82807D7E837F83797B86897F7E7B7E8285817A858280827C7E79777D867E7AE7
:206FC000777F85837D7A8187827F7D7B868380797E8386817D7E848078828D83787B8384AE
:206FE000807B7D888477787D81827C7E80857D787E8C8A77727E88837A7A838C7A788385A7
:207000007E7E7F837F82847F81878576768584797B7F81827A7C7E82847E7C847F7D7E7B89
:2070200081847F7B7E7E7B7C7D848982707A8784817D7D85878481838181837F8281787E51
:2070400081827F757981827A7C7C7C82828184827B7F8087837F8286887F7F7E7E7B7F7E3F
:2070600081797C88847A7E89837D7F83817A7B88857D7B84837D7E7F807678817C7B7E8229
:207080007C7F8689817E838782757B807B7C81807E747F8783817E7D7B82847C7D808681FB
:2070A0007B7B82817F807B807F7A7E817C7D86867E7B7E7B7F7D777B827C7A7A7B83828806
:2070C000837D7E8485837D7F7D7F837F847E7E8087827A7D8C847C8183807C81857F787FA4
:2070E00082807C7B7B7680827D7B7A818D877E7E8086827F7D80818682827F828282888580
:20710000807E767A8578797E807B7983847F787784867E817A7D857E84807A848A82817B97
:207120007B828980787D8180808381837C7F847A7E82797F82827F777E83817B7982858064
:2071400083807E85858B837A828180828581797A8386847A7A807E7D7F808082808178792F
:2071600084867C8384847D798083818081837C8188817E797F83847C787D8284817B7C7E10
:207180007B807E7E777A82837B787F848588827B83868081817F82817B7F84827E7D7C81FD
:2071A00081817C75797B7C797C82827C7E80817E7A868580777E888982807B7F8386847AEC
:2071C0007C7D8182817F7B79848681797680877F747A81807E818A837E7B828A827A7E82C3
:2071E0008782797C777E8284837C7B7A7E7F7F7C7E7B848880797D86837E7E808487827E9F
:207200007D818381818589807982838177767D7B7F7C80847D7783857C7C8084847E7A7D89
:20722000828A8382818384827D818082797B8B877C808084807B7E87877A757C847E7A7649
:207240008083807C7A7B847C788084827F7F8687828187857F817D8085847F7C7B86847A22
:20726000767B7E8078777E8079777C8581827F8280787C878482868282807F81858080812C
:20728000807F7F7A7D82817D7C7D8486807B787D7F7C798089807877878880798389857D04
:2072A0007B8488847D7F84817D837F827E777A788586767781838176788083847D7B8280EE
:2072C00084838082868287818B887B7C857F8482787A8181787277828583757682817B7CBD
:2072E00081847C7C7F7E86827F7D82857F7D8385867E7D8284827C788288837B778189807F
:20730000727985887B73808580797780817B7D7F847D7C828086857C8187877F7B7C808689
:20732000847A7F837D7D7A7D7B797D807D7C7F7E7F837F818687817B8185877F7C83867F5A
:20734000818383827D7C7C7D7D7D827E79757A7B7D7F7F7A8185877E7783837F817E888A48
:20736000838182827D7D83817D7D7C7D80817B7A79848380817A7D817E81837D7A7E88871F
:2073800080807F82847D827F7E807B7D827B7E8183827E7D7D7F8584787A8183817F7F86F8
:2073A0007F717884878281807E84837E7C8087867E80808383818384827A8285827D787BCA
:2073C0007F8078787E7F7E807C7F7F7E857B7F87837E80848983807D7F88827E7B80857FB1
:2073E0007C7F7A80867F7B7D797D8180827C7B7F858585807A7F86807D7A7B83877A7E81A9
:2074000086857C7D7F7F7C787D81807D7A7C82828684797D847F8183807F7E84817C7E827C
:20742000837F80807B7B8084837E7F84847D7C7E807C797C7C7D797E7D7A8688837F7F8466
:20744000848281827F83858480807F7E7B7D7D827D79787E7E7F7B7D7D7D7C7F7F83827555
:207460007987857F82858183838484868A82797B828380817D808276778183807B76777C12
:20748000827E7A7F7E80828282817F7E8186837E858885857F7F8486867F7B8581817F79CB
:2074A0007E847D7B807C7C827C7A7A807A767E7E827F7B8085807E808789807C83848483E3
:2074C000838483807A7B83867E7A7D7E8083838084807A7B807F807D76797C7C787F877FD2
:2074E000757F84818386838387837F858583828180817F7B7A7B7B7E7B807A767B7F81809C
:207500007B7F82817E80838286838080878A817981867E7C7C84807C7B7981837C7C7F7E6D
:2075200078797F7F81807D8184827C81818186827A838B857E7A808081808183817D818047
:20754000817C7E8182797D7F7D7A7B797C7D7E807E808080817F847E82817F848581817E4B
:207560008182818482807C7C818181837F82807D7B7B827F767C7F7E7D81827D8180838519
:207580008681857F80848281837B7F7D798484787B7D817E8082807D7C80858180827982F1
:2075A0007F7B80827B82837D7C808080848481797B8385807A7B7B8183827F7C7C808380E1
:2075C0007D7D7A7E8280807C808180807D7A7D8781787F83858482837F8080827D7F817ABE
:2075E0007B7B7D837E777A8285837F7C7C828281818285847D7D84837D8183817A787D82A0
:20760000837D7D798485817F7D7D807B7E8386887B7D8485817B8087857F7D777F827F7C6F
:207620007C7D7B8082817D7F7C7E89847F7F7E838785807C7F817F7D84817C818584817B46
:207640007C81827E7D7E7C7C82807C7D7F83827C7D7A7D828283807F827F848181827E813D
:207660007D818285847B7A80817E828780787B7E827F7780827B7C84827D7F807A80847E24
:207680007B8189857D7F828686807C7F817E7C7F807D797B7F7C7A76757E867F767E867F14
:2076A0007D808283848585857E8187817C83848483807F787B80787A7D797B7C807C7E80D9
:2076C0007F7F7E7E80808181817D7B7D83837F7F807F817F838480817F83878685827E8198
:2076E0008180FFFFFFFFFFFFFFFFFFFFFFFFFFFFFFFFFFFFFFFFFFFFFFFFFFFFFFFFFFFFA7
:20770000727264646868646471717575888888887272727278787D7D82828B8B838386865B
:207720009C9C8D8D8080868680809898989898988C8C8C8C8C8C8C8C808080807A7A8888F7
:207740008888848475757575717171717E7E7E7E707074747474747468686F6F6F6F7B7B67
:207760007E7E7E7E8A8A83838383838385857A7A8C8C868686867D7D7D7D88888888888899
:2077800098988E8E9292979793938F8F83837F7F8D8D7979858580807B7B767676766B6B49
:2077A0007B7B6B6B6B6B6B6B8787747474746D6D6D6D7979797987878C8C88888B8B91916D
:2077C00091918C8C81819B9B80808080878781819292787878788E8E60608080727272727F
:2077E000727272728484848493939393939393938E8E74747D7D8585707070707070707091
:20780000797970705E5E70707A7A7A7A838383837F7F8F8F76767E7E7E7E7E7E84848989F0
:207820008E8E8E8E7F7F7F7F87878A8A7D7D8D8D7A7A8B8B8B8B82827676848480808080C6
:20784000848487877B7B7F7F6D6D85857E7E7E7E83837E7E797986867B7B6666828279798A
:207860006363777777777C7C737384847575878787877D7D8B8B8B8B83838D8D8D8D9292F6
:2078800080808080868686868B8B82827E7E8D8D7676767683838383747474747C7C8383EE
:2078A000808074747F7F858588887E7E7E7E838383837A7A858572727878787878787D7D18
:2078C0007D7D7575757582828D8D7F7F838383838A8A878796967D7D7D7D7D7D7D7D7D7D82
:2078E0007D7D7D7D7D7D888881817878868674747979838383837777858581817D7D8181B0
:2079000078788585787878788A8A7F7F8484848488888888848481818484868682828A8A15
:20792000838385857E7E848476768080848479797C7C707077776A6A727272727272787817
:207940006D6D7D7D7D7D7D7D717174747E7E848481818D8D828288887F7F8A8A8484818145
:207960008B8B91917B7B838383838A8A909090909595919191918A8A80808E8E7C7C8282DF
:20798000878782827A7A7A7A7D7D83838383717171717171767676767676727267677878DB
:2079A0007878787873737B7B7B7B7B7B7E7E7E7E84848484868684848484868685857F7FE7
:2079C0008989797983837F7F7F7F8A8A8A8A81818F8F8686929292929292868686868686BD
:2079E000898984847D7D7777777774746D6D6B6B71716F6F7171747478787D7D77777C7CA5
:207A0000818182828282797979797979848484848484848484848A8A96968E8E76769797E8
:207A20008D8D8D8D8D8D8D8D93938E8E89897F7F83838080797979797979797988886E6ED2
:207A40006E6E76767C7C707070706C6C818173737373737373737C7C818181817D7D838338
:207A60007E7E7E7E89898585858585857E7E8787848484847D7D83837777848487878484B8
:207A80008787828290908B8B8B8B8B8B8B8B8B8B8E8E8E8E8787858580807C7C7272727236
:207AA0006F6F7A7A6D6D898945455C5C5C5C5C5C5C5C5C5C6A6A767676768080808088882A
:207AC000909083838E8E8E8E8A8A797988887F7F7F7F82829696A3A39D9D98989898A1A1E4
:207AE0009D9DA0A0A3A3A3A39C9C9C9C99998C8C818184847B7B7070737376765E5E6C6C80
:207B00006161646463635959575757575B5B5656676763636C6C7D7D737375757A7A797989
:207B200085858D8D8B8B8E8E8B8B9595939396969595A4A49B9B90909393A0A09D9D9A9AC1
:207B40008D8D989892928686858589898888747479797E7E666673737C7C7A7A7575656557
:207B600069696363656559595555565656565D5D6B6B7272838385859494959594949494C9
:207B800098989797A4A49999818187878D8D8C8C93937F7F8F8F8B8B8C8C84848D8D87872B
:207BA0008E8E838385857D7D757580807373767667676B6B6E6E7171666669696B6B656543
:207BC000737370706565686867677B7B76767D7D8B8B8D8D9595979796969696969682828B
:207BE0008F8F77777D7D929286868F8F8D8D92929090A0A085858C8C8A8A7F7F8787858547
:207C000086868282717175757E7E73736E6E767674747575707071717171717171716F6FC6
:207C20006F6F6E6E6D6D6C6C65656F6F7D7D8484979792929393A6A69C9C949488888787EC
:207C40008E8E89899A9A8C8C8F8F8E8E8F8F88888A8A878781817A7A7C7C7979828271715A
:207C60007575747470706E6E75756B6B72726565686868686868707072727E7E7B7B7474FA
:207C80008A8A85858C8C8B8B8B8B8B8B8F8F959590908F8F858584847C7C858583838888BC
:207CA0008C8C8181818184847B7B727283837F7F848491918181888875757A7A79797979C4
:207CC0007D7D7878797970707D7D71717474707071717B7B7C7C6D6D7A7A777770707979E6
:207CE000808078788989989889898D8D878791918E8E858581817C7C8C8C888885858282A0
:207D00007878878787877D7D76767878848485857A7A80806D6D72728080787882827C7CD1
:207D20007A7A84847C7C7E7E7575777774747D7D858574749595797980807F7F8D8D83836D
:207D4000868680808B8B888890907A7A80807E7E7F7F7E7E8B8B848478787B7B82828080DF
:207D60007E7E7C7C707086867474797978787C7C838382827F7F7F7F7F7F8B8B8484868633
:207D8000868683838484888883838B8B78788383818177778383777776767373747477771B
:207DA00076767F7F7D7D87877E7E8B8B848470708E8E868688888282838388888787878769
:207DC000919182827B7B83837E7E8080898984847B7B86867E7E808082827B7B8080818171
:207DE00081817A7A7C7C727280807D7D7E7E7A7A80807F7F7F7F76767E7E8181797971710D
:207E000081817D7D81817D7D818183838787757580808383878781817F7F8383898991911C
:207E20008181858580808585838381817C7C7E7E7F7F79798686878787877D7D7D7D828220
:207E40007C7C7C7C7C7C7C7C7C7C818180807C7C7D7D797979797A7A7C7C7E7E7F7F7A7A98
:207E600074747A7A7E7E79796F6F85857F7F7B7B8B8B83838D8D878788888E8E8C8C8D8DBA
