:10000000E5C00000D3C20000FFC00000FDC000003A
:10001000FBC00000F9C00000F7C00000F5C0000000
:10002000F3C00000F1C000000C94200FEDC00000F0
:10003000EBC00000D9C2000009C30000E5C0000009
:10004000E3C00000E1C00000DFC00000DDC0000030
:10005000DBC000002BC30000D7C00000D5C00000EB
:10006000D3C00000D1C00000CFC00000CDC0000050
:10007000CBC00000C9C00000C7C00000C5C0000060
:10008000C3C00000C1C00000BFC00000BDC0000070
:10009000BBC00000B9C0000012011001FF00000841
:1000A000EB03042100020102030109022000010107
:1000B0000040320904000002FF0000000705820230
:1000C0004000000705020240000004030904180371
:1000D0004400650061006E002000430061006D0077
:1000E00065007200610000002E034C0055004600C0
:1000F00041002000410056005200490053005000CA
:1001000020004D006B0049004900200043006C00B6
:100110006F006E00650000001C03300030003000EE
:100120003000410030003000310032003800320031
:100130003500350000001201100102000008EB0339
:100140004B2000000102DC0109023E00020100C058
:10015000320904000001020201000524000110041C
:100160002402060524060001070582030800FF0992
:10017000040100020A000000070504021000000745
:1001800005830210000004030904180344006500FD
:1001900061006E002000430061006D006500720088
:1001A0006100000026034C0055004600410020007D
:1001B000580050004C00410049004E002000420011
:1001C00072006900640067006500000011241FBE12
:1001D000CFEFD0E2DEBFCDBF11E0A0E0B1E0E8EDAF
:1001E000F2E200E00BBF02C007900D92A435B10708
:1001F000D9F712E0A4E5B1E001C01D92AC37B10718
:10020000E1F7B1D00C946A11FBCE2E9808952E9888
:1002100008959C0180910001882311F4C901EAC06E
:10022000C901B4C080910001882321F481E091E0EC
:100230000C940011089580910001882329F481E035
:1002400091E00E94B91005C082E060E842E30E949C
:10025000880C817011F02E9A08952E98089584B715
:10026000877F84BF88E10FB6F89480936000109276
:1002700060000FBE80E090E020E80FB6F894209375
:100280006100809361000FBE76D1269A2E9A0E945B
:10029000040FECD285B7806885BF85B7806885BFBD
:1002A0008F9A80E29EE40197F1F78FB110920001DE
:1002B00087FD03C081E08093000185B78F7785BFFC
:1002C00085B78F7785BF08951F938091730284301F
:1002D00009F038C081E091E00E94FA0F182F0DC09C
:1002E0008091D901803859F081E091E00E9423107B
:1002F000682F85E591E0C0D01150112389F78091D6
:100300005E02882341F08AED91E0EDD0682F81E014
:1003100091E00E9494108091D901882339F009D18D
:10032000882321F085E591E0DED00BD118D1882318
:1003300029F018D1682F8AED91E09ED081E091E0FC
:100340000E9472101F91089580917302843051F4BD
:1003500082E08093E9008091E80082FF03C02E983C
:10036000B8D12E9A08957BDF85E591E071D08AEDB2
:1003700091E06ED02E98789480910001882311F43A
:10038000A3DF01C0E1DF0E94E60FF6CFDA01923071
:1003900049F0933061F0913029F5E8E9F0E022E18D
:1003A00030E024C0EAEAF0E020E230E01FC0813013
:1003B00059F0813028F0823059F0833099F40CC024
:1003C000EAECF0E084910BC0EEECF0E0849107C021
:1003D000E8EEF0E0849103C0E8E1F1E08491282F99
:1003E00030E004C0E0E0F0E020E030E0ED93FC938A
:1003F000C9010895DA01923049F0933061F09130EB
:10040000F9F4E6E3F1E022E130E01EC0E8E4F1E0D7
:100410002EE330E019C0813049F0813018F082308D
:1004200079F408C0E6E8F1E0849107C0EAE8F1E079
:10043000849103C0E4EAF1E08491282F30E004C005
:10044000E0E0F0E020E030E0ED93FC93C901089596
:10045000FC018FB7F894DF01A058BF4F1196FC93B1
:10046000EE93DF01AE57BF4F1196FC93EE93EC571E
:10047000FF4F10828FBF0895AC017FB7F894FC0145
:10048000EC57FF4F8081803899F4FA01EE57FF4F07
:100490008081918101969183808320813181CA017D
:1004A00080589F4F2817390731F45183408303C088
:1004B00080818F5F8083DA01A058BF4FED91FC915E
:1004C000119760838D919C911197019611969C9341
:1004D0008E93ED91FC911197EA17FB0711F451836C
:1004E00040837FBF0895AC017FB7F894DC01AE571D
:1004F000BF4FED91FC91119760818D919C91119767
:10050000019611969C938E93FA01EC57FF4F8081D0
:10051000815080832D913C911197CA0180589F4F43
:100520002817390719F411965C934E937FBF862FD5
:1005300008958091620290E0882309F491E0892F68
:100540000895982F809162028823E1F7892F809582
:1005500080935F028AE080936202892F08958091E0
:1005600063020895809163028823E1F3109263028D
:100570008091610208958091B2008F5F8093B400F2
:1005800080E38093B00082E48093B10084E08093A4
:10059000700082E08093690081E08DBB109262025E
:1005A00010926302599A519A589A08951F920F9285
:1005B0000FB60F9211248F938091B20084568093CE
:1005C000B3001092640281E08093600282E087BBF6
:1005D000489904C086E080937000E8988F910F904E
:1005E0000FBE0F901F9018951F920F920FB60F928B
:1005F00011248F939F93809160028823A1F0489BE0
:1006000007C09091640280916002892B80936402FC
:1006100080916002880F809360028091B3008859B6
:100620008093B3000CC081E08093630290916402D8
:100630009093610294E090937000E89A8CBB9F9134
:100640008F910F900FBE0F901F9018951F920F92D1
:100650000FB60F9211248F938091B4008859809324
:10066000B400809162028823D9F0809162028150A7
:100670008093620280916202893079F080915F02FA
:1006800080FD02C080E301C080E28093B0008091D1
:100690005F02869580935F0203C080E28093B00082
:1006A0008F910F900FBE0F901F90189578941F9206
:1006B0000F920FB60F9211248F938EB3882319F0E7
:1006C0008EB381508EBB8F910F900FBE0F901F90F5
:1006D0001895FF920F931F931091F10088EC8EBB39
:1006E00083E085BD163009F45EC0173048F4113040
:1006F00089F0113008F48DC0143008F08AC027C08A
:10070000103509F47DC0113509F478C01A3009F0AC
:1007100080C062C08091E8008B778093E80082E01F
:100720008093E9008091EC0081608093EC0010934D
:10073000F1001092F1008AE08093F10087E191E0EE
:100740006AE070E040E050E00E94040D7BC0009140
:10075000F100123011F0FF2402C0F090F1008091FE
:10076000E8008B778093E80082E08093E900809135
:10077000EC0081608093EC001093F100802FC0D0DA
:10078000123041F481FF0DC01092F100802F6F2DC7
:1007900094D058C080FF05C01092F100802FA8D0DF
:1007A0004FC080EC4DC086E692E064E070E040E02F
:1007B00050E00E947A0D8091E8008B778093E800EA
:1007C00082E08093E9008091EC0081608093EC00EE
:1007D00081E0809365020DC08091E8008B77809363
:1007E000E80082E08093E9008091EC0081608093D2
:1007F000EC001093F1001092F10024C096D027C0B5
:1008000019D225C08091E8008B778093E8000E9480
:10081000D30C8091F2009091F3008034910591F314
:100820008091E8008B778093E80082E08093E90074
:100830008091EC0081608093EC001093F10089ECD2
:100840008093F1008091E8008E778093E80015BCDA
:100850000E94D30C82E08093E9008091EC008E7FAF
:100860008093EC001F910F91FF900895AAE7B0E0EC
:1008700087EA8C938298EEE7F0E080818460808341
:1008800082E480937C008C9180648C938DE787BD9B
:1008900082E084BD80936E003BC0982FE2E2F1E0DD
:1008A0008081981741F081E0ED33F80711F033961D
:1008B000F7CFE0E0F0E0CF0108950F931F93182FDA
:1008C000062FEBDFFC01009781F002831E3969F4EB
:1008D000F999FECF1FBA80E090E092BD81BD00BDC6
:1008E0000FB6F894FA9AF99A0FBE1F910F910895D6
:1008F000D4DFFC01009711F480E00895828108950F
:10090000CCDFFC01009711F480E008958181089507
:100910008EE9C3DFFC01F999FECF80E090E092BD43
:1009200081BDF89A80B582830895DF93CF930F92AB
:10093000CDB7DEB7CE01019661E070E040E050E057
:100940000E943F0D8091E8008B778093E80082E061
:100950008093E9008091EC0081608093EC009981A4
:100960009093540181E58093F100913011F480EC73
:1009700001C080E08093F1008091E8008E77809341
:10098000E8000F90CF91DF910895AF92BF92CF9280
:10099000DF92EF92FF920F931F93DF93CF93CDB728
:1009A000DEB7C850D1400FB6F894DEBF0FBECDBF42
:1009B000CE01019668E070E040E050E00E943F0DFB
:1009C0002B813C814D815E81122F0027FF24EE2474
:1009D000852F9927AA27BB27E82AF92A0A2B1B2B40
:1009E000DA01C90180709070B070892F9A2FAB2FF7
:1009F000BB27E82AF92A0A2B1B2B20704070507065
:100A0000542F432F322F2227E22AF32A042B152BAF
:100A1000EB82FC820D831E837F8168856F837887DC
:100A20008E01075F1F4FC80140E050E00E943F0D5C
:100A30008091E8008B778093E80082E08093E90062
:100A40008091EC0081608093EC00809154018823B8
:100A5000A1F589818330B9F0843028F4813069F0C0
:100A60008230D1F40DC0853031F0853008F44FC0AC
:100A7000863091F40CC088E04BC066E244E20EC0C0
:100A800066E24CE20BC066E344E383E308C083E024
:100A90008A8366E24AE102C066E24EE283E2EB80CC
:100AA000FC800D811E81AF80B8842A8199E0C92E17
:100AB000D12CCC0EDD1EB5D306C04F8158858B815D
:100AC0009C81B80141D5882311F090E001C093E0EA
:100AD00080E58093F10084E08093F1009093F10031
:100AE0008091E8008E778093E800C85FDE4F0FB6F4
:100AF000F894DEBF0FBECDBFCF91DF911F910F9154
:100B0000FF90EF90DF90CF90BF90AF9008958CE46E
:100B10004B815C816D817E812985EAD3D4CFEF92B0
:100B2000FF920F931F93DF93CF93CDB7DEB7C750DC
:100B3000D1400FB6F894DEBF0FBECDBFCE010196F7
:100B400067E070E040E050E09AD72A813B814C8119
:100B50005D81122F0027FF24EE24852F9927AA27D5
:100B6000BB27E82AF92A0A2B1B2BDA01C90180705E
:100B70009070B070892F9A2FAB2FBB27E82AF92AE3
:100B80000A2B1B2B207040705070542F432F322F94
:100B90002227E22AF32A042B152BEA82FB820C83FC
:100BA0001D833E812F812E833F838091E8008B77C8
:100BB0008093E80082E08093E9008091EC008160FE
:100BC0008093EC0080915401AE01485F5F4F882311
:100BD00021F4C801B701AED304C0C701BA01A9010D
:100BE000EBD4882311F493E001C090E080E580937A
:100BF000F10085E08093F1009093F100992339F49E
:100C00006E817F81CE01089640E050E0FDD6809154
:100C1000E8008E778093E800C95FDE4F0FB6F89446
:100C2000DEBF0FBECDBFCF91DF911F910F91FF901F
:100C3000EF900895CF92DF92EF92FF920F931F9360
:100C4000DF93CF93CDB7DEB76A970FB6F894DEBFC8
:100C50000FBECDBF9091F100943009F42AC19530B8
:100C600050F4923009F47CC0933008F0A3C0913066
:100C700009F0B2C10AC0963009F41FC1963008F4D9
:100C80001AC1973009F0A8C15AC18091E8008B774A
:100C90008093E80082E08093E9008091EC0081601D
:100CA0008093EC0080915401882351F5ECD181ECC4
:100CB00002D289E500D282ECFED187E0FCD180EE41
:100CC000FAD18E010E5E1F4F8BE0C82ED12CCC0EB8
:100CD000DD1EBAE0EB2EF12CEC0EFD1ED601ECE48D
:100CE000F1E088E001900D928150E1F7F8018081F8
:100CF000E2D1015010400E151F0581F754D325C0D5
:100D0000A9D182ECD8D187E0D6D180EED4D18E01A2
:100D1000065E1F4FA3E1CA2ED12CCC0EDD1EF2E1E0
:100D2000EF2EF12CEC0EFD1ED601E4E4F1E088E09C
:100D300001900D928150E1F7F8018081BCD1015002
:100D400010400E151F0581F761D4982F80E5809320
:100D5000F10081E08093F10089278093F10037C191
:100D60008091E8008B778093E8009093E900809170
:100D7000EC0081608093EC0080915401882359F449
:100D800012D381EC98D180E096D181EC94D180E0AF
:100D900092D1EED106C03AD482EC8DD180E08BD1D5
:100DA000D4D180E58093F10082E08093F10010922D
:100DB000F1000DC1CE01069665E070E040E050E024
:100DC0005ED62F81388549855A85122F0027FF244A
:100DD000EE24852F9927AA27BB27E82AF92A0A2B70
:100DE0001B2BDA01C90180709070B070892F9A2F87
:100DF000AB2FBB27E82AF92A0A2B1B2B2070407047
:100E00005070542F432F322F2227E22AF32A042B2B
:100E1000152BEF82F88609871A878091E8008B7777
:100E20008093E80082E08093E9008091EC0081608B
:100E30008093EC00809154019E81882349F5943081
:100E4000C1F0953038F4923071F0933080F49130E5
:100E5000D1F40BC0963089F0963068F0973079F075
:100E6000983089F40EC080E20FC080E40DC088E69F
:100E70000BC080E309C082E207C08AE205C082E3BA
:100E800003C088E101C080E0B801A7019FD207C07C
:100E9000913011F084E101C080E1B7013AD3882399
:100EA00011F090E001C093E080E58093F10083E0D1
:100EB0008AC06BDD91C033DE8FC0CE01019661E048
:100EC00070E040E050E0DBD58091E8008B778093C4
:100ED000E80082E08093E9008091EC0081608093DB
:100EE000EC0080915401882311F091E013C08981B6
:100EF000813021F0823021F489E303C088E301C00E
:100F000088E7BE016E5F7F4F8BD2882311F493E098
:100F100001C090E080E58093F10086E08093F100CD
:100F20009093F100992309F052C08A819B81AC8192
:100F3000BD819D01442755272093F10044C0809135
:100F4000F1008230E1F0833018F4813029F406C0DA
:100F50008330F1F0843009F191E024C03091F10048
:100F60002091F1009091F1008091F1008093400177
:100F700090934101209342013093430112C090911C
:100F8000F1008091F10080936C0290936D0209C092
:100F90008091F10080936B0204C08091F1008093F6
:100FA0006A0290E08091E8008B778093E80082E00D
:100FB0008093E9008091EC0081608093EC0080E5F3
:100FC0008093F10087E08093F1009093F10080918D
:100FD000E8008E778093E8006A960FB6F894DEBF3B
:100FE0000FBECDBFCF91DF911F910F91FF90EF907A
:100FF000DF90CF9008954D99FECF4D9BFECF5B9A29
:10100000539A8091C9008F7E8093C9008091C90056
:1010100088608093C90081E080936E028EB388233C
:1010200011F088EC8EBB81E080936E020895809170
:101030006E02882309F4DFDF80E04D99FECF4D9BDF
:10104000FECF8F5F8C30C9F78EB3882311F088EC08
:101050008EBB089510926E02249A2C9882E08A9595
:10106000F1F78AB188628AB9529888E090E090934B
:10107000CD008093CC0088E08093C9008FE68093F8
:10108000CA00D5DFD4CF10926E028AB188628AB9C5
:1010900052985B9A82E08A95F1F788E090E090930D
:1010A000CD008093CC0088E08093C9008FE68093C8
:1010B000CA00BDDFBCCF1F93182F80916E0288231A
:1010C00009F499DF8091C80085FFFCCF8091C800AA
:1010D00080648093C8001093CE008EB3882311F0F3
:1010E00088EC8EBB1F9108958091C80086FFFCCFCD
:1010F0008091C80080648093C8008091C900877F78
:101100008093C9008091C90080618093C900539881
:101110005B988EB3882311F088EC8EBB10926E0220
:10112000089580916E02882309F0DEDF8091C80067
:1011300087FD03C08EB38823C9F78EB3882311F0CF
:1011400088EC8EBB8091CE000895CEDFE8ECF0E015
:101150008081806C80831092C9001092CA008AB18D
:10116000877D8AB98BB1837D8BB924982C9808959B
:10117000BBDF80EC8093C8001092C9001092CA00B7
:101180008AB1877D8AB98BB1837D8BB908950F931E
:101190001F93DF93CF9300D000D0CDB7DEB7698324
:1011A0007A838B839C838E010F5F1F4F862F83DF93
:1011B000F801818180DFF80182817DDFF801838180
:1011C0007ADF0F900F900F900F90CF91DF911F91CA
:1011D0000F91089590E0A0E0B0E02091400130919F
:1011E00041014091420150914301822B932BA42B4A
:1011F000B52BBC01CD01CBCF0FC08CE05CDF8FE005
:10120000E9DF8FDF982F8EB3882349F097FD04C064
:1012100088EC8EBB81E008958EB3882371F780E05F
:1012200008957F928F929F92AF92BF92CF92DF925A
:10123000EF92FF920F931F93CF93DF93882E962EFA
:10124000742EE601D22E20FF10C0D6DF882309F4C9
:1012500040C08CE430DF8AE0BDDF892D2CDF8CE4D8
:101260002ADF8BE0B7DF81E026DFA114B104E9F0CB
:10127000C3DF882371F18CE41EDF8AE0ABDF882DA9
:101280001ADF8BE618DFC801B70181DF80EA13DFC0
:101290008A2D815010DF84E60EDF89910CDF0894DF
:1012A000A108B108A114B104C1F7D1FE10C0A4DF98
:1012B000882379F08CE4FFDE8AE08CDF872DFBDE6B
:1012C0008CE4F9DEC801B70162DF80E0F4DE81E082
:1012D00001C080E0DF91CF911F910F91FF90EF90BF
:1012E000DF90CF90BF90AF909F908F907F900895A8
:1012F000CF92DF92EF92FF920F931F93D82E7A0135
:101300008B01C22E79DF882371F08CE4D4DE8AE071
:1013100061DF8D2DD0DE8CE4CEDEC801B70137DF72
:101320008C2DC9DE81E01F910F91FF90EF90DF902F
:10133000CF900895CF92DF92EF92FF920F931F9379
:10134000CF93DF937B018C016A01E90155DF88238C
:1013500009F18CE4B0DE8AE03DDF83E4ACDE8BE6AD
:10136000AADEC801B70113DF80EAA5DE9E01215085
:10137000822FA1DE84E29FDE04C0D3DEF6018193DA
:101380006F01209721F08EB321978823B1F78EB398
:10139000811181E0DF91CF911F910F91FF90EF902C
:1013A000DF90CF9008950DC080E885DEBADE982FDB
:1013B0008EB3882349F091FF04C088EC8EBB81E096
:1013C00008958EB3882381F780E00895DF92EF922D
:1013D000FF920F931F93D82E7A018B010DDF882384
:1013E000C9F08CE468DE8AE0F5DE8D2D64DE80E4F1
:1013F000D81631F48CE45FDE8BE0ECDE81E006C0D1
:101400008CE459DEC801B701C2DE80E054DECBDFD8
:10141000811181E01F910F91FF90EF90DF9008956F
:10142000EF92FF920F931F93082FF62EE72EE4DE24
:10143000882361F18CE43FDE8AE0CCDE802F3BDE46
:101440008CE439DE8BE0C6DE81E035DEACDF88235C
:10145000E9F0D2DE8823D1F08BE62DDE84E0BADE1F
:1014600080EA29DE82E027DE84E225DE0F2D1E2DB4
:1014700058DEF801808355DEF801818352DEF801E1
:1014800082838EB3882319F081E001C080E01F9130
:101490000F91FF90EF900895282F8F70806930E0B2
:1014A00020733070220F331F822B05CEDF93CF9332
:1014B00000D0CDB7DEB79A83898388E6FCDD8981C9
:1014C000FADD89E6F8DDFE0131968181F4DD0F90C9
:1014D0000F90CF91DF91089517C020916A02822F5B
:1014E0008F70806130E020733070220F331F822BA9
:1014F000E2DD17DE982F8EB3882349F097FD04C0F4
:1015000088EC8EBB81E008958EB3882331F780E0AC
:1015100008951F93CF93DF93182FEB01DDDF88230E
:1015200079F080916B02B8DF812FC5DDCE0181603B
:10153000BDDF80E6C0DD80E0BEDDCEDF811181E071
:10154000DF91CF911F910895EF92FF920F931F9318
:10155000CF93DF937C018B01EA01BEDF882321F169
:10156000C0FF06C0F801EC0FFD1F8FEF80832196AE
:1015700080916B0291DF8DE19EDDC70197DF10C086
:10158000ABDF882389F084E696DDF801808193DD66
:1015900084E691DDF80181810E5F1F4F8CDD22977B
:1015A000209771F781E001C080E0DF91CF911F911A
:1015B0000F91FF90EF900895EF92FF920F931F937A
:1015C000CF93DF938C017B01EA0186DF8823B9F09A
:1015D00080916B0261DF80E06EDDC80167DF06C0CD
:1015E00084E269DD9EDDF70181937F01209721F080
:1015F0008EB321978823A1F78EB3811181E0DF910B
:10160000CF911F910F91FF90EF9008950DC080E84A
:1016100052DD87DD982F8EB3882349F091FF04C0F7
:1016200088EC8EBB81E008958EB3882381F780E03B
:1016300008951F93DF93CF93CDB7DEB7AC970FB666
:10164000F894DEBF0FBECDBFE4E7F2E08091F10079
:10165000819322E0EC37F207C9F780917402309150
:101660007502353009F487C0363040F43130C9F1A5
:10167000313070F0333009F023C133C0383009F411
:10168000F3C0393009F402C1363009F019C194C0F1
:10169000803821F0823809F013C108C090916F02A0
:1016A00080917002882399F0926011C08091780235
:1016B00087708093E9008091EB0090E025E096959B
:1016C00087952A95E1F7982F91701092E900809103
:1016D000E800877F8093E8009093F1001092F1007A
:1016E000CEC0882319F0823009F0EAC090E08F71F3
:1016F0009070009721F0029709F0E4C00CC080912F
:101700007602813009F0DEC010927002333069F544
:10171000809370022AC080917602882331F520914F
:101720007802277009F4CEC02093E9008091EB0085
:1017300080FFC8C0333021F48091EB00806213C079
:101740008091EB0080618093EB0081E090E002C02B
:10175000880F991F2A95E2F78093EA001092EA0019
:101760008091EB0088608093EB001092E9008091FB
:10177000E800877F87C0882309F0A2C01091760215
:101780008091E800877F8093E800ECD005C08091CD
:101790007302882309F496C08091E80080FFF7CF98
:1017A000812F8F7711F492E001C093E09093730240
:1017B00080688093E30086C08058823008F080C043
:1017C000809176029091770223E08C3D920799F503
:1017D0005FB7F894DE0115964EE020E030E061E25C
:1017E000E42FF0E060935700849120FF03C08295BE
:1017F0008F704F5F982F9F70892F805D8A3308F01C
:10180000895F8C9311961C9211972F5F3F4F129610
:101810002431310529F75FBF8AE28B8383E08C8313
:101820008091E800877F8093E800CE0103966AE20A
:1018300070E09BD113C060917802AE014F5F5F4FA3
:101840000E940901BC01009709F43CC08091E800A6
:10185000877F8093E80089819A81E7D18091E800B1
:101860008B778093E8002EC0803851F58091E80096
:10187000877F8093E800809171028093F1008091CE
:10188000E8008E778093E8006DD01CC08823C1F4F7
:10189000909176029230B0F48091E800877F809337
:1018A000E800909371025ED080917102882311F458
:1018B00083E001C084E0809373020E941B0102C098
:1018C0000E9412018091E80083FF0AC08091EB0022
:1018D00080628093EB008091E800877F8093E8002E
:1018E000AC960FB6F894DEBF0FBECDBFCF91DF919F
:1018F0001F91089528E030E040E003C04F5F220FC1
:10190000331F28173907D0F3842F8295807F0895DD
:101910008093E9008091EB0081608093EB0010924E
:10192000ED006093EC004093ED008091EE00881F85
:101930008827881F08951092F40090E09093E900A2
:101940001092F0001092E8008091ED008D7F80935E
:10195000ED008091EB008E7F8093EB009F5F9730CE
:1019600069F708958091740288239CF404C08091E3
:1019700073028823B9F08091E80082FFF8CF80914C
:10198000E8008B778093E8000895809173028823A4
:1019900049F08091E80080FFF8CF8091E8008E77D1
:1019A0008093E800089594E68091EC0080FF05C0E4
:1019B0008091E80080FF05C025C08091E80082FD8D
:1019C00021C080917302882311F482E008958091F0
:1019D0007302853011F483E008958091EB0085FF58
:1019E00002C081E008958091E10082FFDDCF809107
:1019F000E1008B7F8093E100992311F484E0089546
:101A00009150D2CF80E00895DF92EF92FF920F9332
:101A10001F93CF93DF93182F092FEB017A01C3DFB8
:101A2000D82E882319F5812F902F9C0189011CC085
:101A30008091E80085FD12C08091E8008E77809348
:101A4000E800E114F10431F0F7010995813011F457
:101A500085E00DC0A8DF882339F009C0F801819125
:101A60008F018093F1002197209711F78D2DDF9141
:101A7000CF911F910F91FF90EF90DF900895DF922B
:101A8000EF92FF920F931F93CF93DF93182F092F9D
:101A9000EB017A0188DFD82E882319F5812F902F4A
:101AA0009C0189011CC08091E80085FD12C08091D5
:101AB000E8008B778093E800E114F10431F0F7013E
:101AC0000995813011F485E00DC06DDF882339F070
:101AD00009C08091F100F80181938F01219720972F
:101AE00011F78D2DDF91CF911F910F91FF90EF9006
:101AF000DF900895DF92EF92FF920F931F93CF93A1
:101B0000DF938C01EB017A014EDFD82E882321F57B
:101B100021970C0F1D1F21961DC08091E80085FDA7
:101B200012C08091E8008B778093E800E114F10403
:101B300031F0F7010995813011F485E00EC033DFF3
:101B4000882341F00AC08091F100F80180830150A0
:101B500010402197209709F78D2DDF91CF911F918C
:101B60000F91FF90EF90DF9008959C0140917A02D1
:101B700050917B024617570718F4F90120E03DC049
:101B80006115710511F0AB01F8CF8091E8008E77F7
:101B90008093E80040E050E0F0CF8091E80083FFC0
:101BA00002C081E008958091E80082FD34C08091F8
:101BB00073028823B1F1809173028530A1F1809185
:101BC000E80080FF1AC08091F2009091F300982FF6
:101BD00006C081918093F100415050409F5F4115B4
:101BE000510511F09830A8F320E0983009F421E075
:101BF0008091E8008E778093E8004115510569F6E1
:101C0000222359F608C080917302882351F08091F5
:101C10007302853041F08091E80082FFF4CF80E0CC
:101C2000089582E0089583E008959C0140917A022E
:101C300050917B024617570710F490E03FC06115A2
:101C4000710511F0AB01F9CF8091E8008E77809398
:101C5000E80040E050E0F1CF8091E80083FF02C04F
:101C600081E008958091E80082FD36C08091730282
:101C70008823C1F1809173028530B1F18091E80031
:101C800080FF1CC08091F2009091F30009C0F9011F
:101C90002F5F3F4FE491E093F100415050408F5F40
:101CA0004115510511F0883090F390E0883009F427
:101CB00091E08091E8008E778093E800411551050E
:101CC00059F6992349F608C080917302882351F090
:101CD00080917302853041F08091E80082FFF4CF5B
:101CE00080E0089582E0089583E008959C016115E5
:101CF000710529F48091E8008B778093E800F90161
:101D000024C08091E80083FF02C081E008958091A3
:101D10007302882361F180917302853051F18091C3
:101D2000E80082FFEECF06C08091F1008193615000
:101D3000704031F08091F2009091F300892BA1F76F
:101D40008091E8008B778093E80061157105C9F6F2
:101D500008C080917302882351F08091730285300E
:101D600041F08091E80080FFF4CF80E0089582E0A8
:101D7000089583E0089557D05ED0109273021092B8
:101D800071021092700210926F028CE089BD89B5C9
:101D9000826089BD09B400FEFDCF8091D800982FE4
:101DA0009F779093D80080688093D8008091D70067
:101DB00081608093D7008091D8008F7D8093D80078
:101DC0008091E0008B7F8093E0008091E0008E7F27
:101DD0008093E0008091E1008E7F8093E10080910C
:101DE000E20081608093E2008091E100877F809330
:101DF000E1008091E20088608093E2008091D80049
:101E000081608093D8000895E7EDF0E080818068DC
:101E10008083B1DFE8EDF0E080818061808381E044
:101E2000809372020895E8EDF0E080818C7F8083DA
:101E30001092E20008951092DA001092E1000895E5
:101E40001F920F920FB60F920BB60F9211242F9381
:101E50003F934F935F936F937F938F939F93AF9332
:101E6000BF93EF93FF938091DA0080FF17C08091BA
:101E7000D80080FF13C08091DA008E7F8093DA0053
:101E80008091D90080FF06C081E0809373020E9498
:101E9000050104C0109273020E9407018091E100C5
:101EA00080FF1DC08091E20080FF19C08091E10099
:101EB0008E7F8093E1008091E2008E7F8093E2002C
:101EC0008091E20080618093E2008091D80080627E
:101ED0008093D80019BC85E08093730276D08091FE
:101EE000E10084FF2AC08091E20084FF26C08CE0DC
:101EF00089BD89B5826089BD09B400FEFDCF80919E
:101F0000D8008F7D8093D8008091E1008F7E8093F0
:101F1000E1008091E2008F7E8093E2008091E200F8
:101F200081608093E20080917102882311F483E044
:101F300001C084E08093730248D08091E10083FF68
:101F400023C08091E20083FF1FC08091E100877F62
:101F50008093E10082E0809373021092710280917D
:101F6000E1008E7F8093E1008091E2008E7F80937C
:101F7000E2008091E20080618093E200DCDC80E09E
:101F800060E042E0C5DC21D08091E10082FF0AC020
:101F90008091E20082FF06C08091E1008B7F8093F8
:101FA000E10013D0FF91EF91BF91AF919F918F917D
:101FB0007F916F915F914F913F912F910F900BBE49
:101FC0000F900FBE0F901F90189508951F9380914A
:101FD0007302882361F01091E9001092E90080916A
:101FE000E80083FF01C025DB17701093E9001F9103
:101FF00008950895FC0180917302843001F587856E
:102000009089A189B2890097A105B105C1F08581A8
:102010008093E9008091E80082FF11C08091F20076
:102020009091F300892B31F48091E8008B778093B5
:10203000E80005C02091F2003091F30002C020E0DA
:1020400030E0C9010895FC01809173028430C9F425
:1020500087859089A189B2890097A105B10589F08A
:1020600085818093E9002091F1008091F2009091A8
:10207000F300892B39F48091E8008B778093E80096
:1020800001C020E0822F0895FC018091730284300A
:1020900021F587859089A189B2890097A105B105AD
:1020A000E1F081818093E9008091F2009091F3004A
:1020B000892BA9F09091E8008091E8008E778093B9
:1020C000E80095FD0CC06FDC982F882349F48091BF
:1020D000E8008E778093E80003C092E001C090E0B2
:1020E000892F0895FC01809173028430E1F4878583
:1020F0009089A189B2890097A105B105A1F08581D8
:102100008093E9008091E80082FF0BC08091F2008B
:102110009091F300892B29F48091E8008B778093CC
:10212000E800CF01B1CF08951F93FC01162F8091D5
:1021300073028430D9F487859089A189B289009788
:10214000A105B10599F081818093E9008091E800B3
:1021500085FD08C08091E8008E778093E80023DC3D
:10216000882329F41093F10080E001C082E01F91E0
:1021700008950F931F93CF93DF93EC010D96FC010D
:1021800089E0DF011D928A95E9F709818C81882316
:1021900011F412E001C016E08A819B81ABDB182BA1
:1021A000802F61E8412FB4DB882321F10D818885E0
:1021B000882311F412E001C016E08E819F819ADB22
:1021C000182B802F60E8412FA3DB882399F0098525
:1021D0008C85882311F412E001C016E08A859B8566
:1021E00089DB182B802F61EC412F92DB882319F0BB
:1021F00081E001C080E0DF91CF911F910F910895A0
:10220000CF93DF93EC018091E80083FF60C0888169
:1022100090E020917802309179022817390709F06F
:1022200056C080917502813261F0823220F4803292
:1022300009F04DC019C0823269F1833209F047C0FC
:1022400038C080917402813A09F041C08091E80061
:10225000877F8093E800CE010F9667E070E085DC11
:102260008091E8008B7713C080917402813279F5F8
:102270008091E800877F8093E800CE010F9667E0A9
:1022800070E034DDCE01B5DE8091E8008E7780937A
:10229000E8001DC0809174028132C9F48091E80089
:1022A000877F8093E800809176028D87CE01A1DE42
:1022B0000DC080917402813251F48091E800877FD3
:1022C0008093E800CE016091760293DE4BDBDF91D4
:0822D000CF910895F894FFCFAF
:1022D80001000310000104100001020800000000C2
:1022E800000000000000004156524953505F4D4B1A
:1022F80032008001058101139001009101019201D2
:102308000D9401329803069E0200A10100A4020068
:10231800C00100011289AB45CDD888FF1289AB45B1
:04232800CDD888FF85
:00000001FF
